{
  "contractName": "ERC721Enumerable",
  "abi": [
    {
      "anonymous": false,
      "inputs": [
        {
          "indexed": true,
          "internalType": "address",
          "name": "from",
          "type": "address"
        },
        {
          "indexed": true,
          "internalType": "address",
          "name": "to",
          "type": "address"
        },
        {
          "indexed": true,
          "internalType": "uint256",
          "name": "tokenId",
          "type": "uint256"
        }
      ],
      "name": "Transfer",
      "type": "event"
    },
    {
      "inputs": [
        {
          "internalType": "address",
          "name": "_owner",
          "type": "address"
        }
      ],
      "name": "balanceOf",
      "outputs": [
        {
          "internalType": "uint256",
          "name": "",
          "type": "uint256"
        }
      ],
      "stateMutability": "view",
      "type": "function"
    },
    {
      "inputs": [
        {
          "internalType": "uint256",
          "name": "_tokenId",
          "type": "uint256"
        }
      ],
      "name": "ownerOf",
      "outputs": [
        {
          "internalType": "address",
          "name": "",
          "type": "address"
        }
      ],
      "stateMutability": "view",
      "type": "function"
    },
    {
      "inputs": [],
      "name": "totalSupply",
      "outputs": [
        {
          "internalType": "uint256",
          "name": "",
          "type": "uint256"
        }
      ],
      "stateMutability": "view",
      "type": "function"
    }
  ],
  "bytecode": "0x608060405234801561001057600080fd5b50610536806100206000396000f3fe608060405234801561001057600080fd5b50600436106100415760003560e01c806318160ddd146100465780636352211e1461006457806370a0823114610094575b600080fd5b61004e6100c4565b60405161005b919061029d565b60405180910390f35b61007e600480360381019061007991906102e9565b6100d1565b60405161008b9190610357565b60405180910390f35b6100ae60048036038101906100a9919061039e565b61015b565b6040516100bb919061029d565b60405180910390f35b6000600280549050905090565b60006100dc82610213565b61011b576040517f08c379a00000000000000000000000000000000000000000000000000000000081526004016101129061044e565b60405180910390fd5b600080600084815260200190815260200160002060009054906101000a900473ffffffffffffffffffffffffffffffffffffffff16905080915050919050565b60008073ffffffffffffffffffffffffffffffffffffffff168273ffffffffffffffffffffffffffffffffffffffff1614156101cc576040517f08c379a00000000000000000000000000000000000000000000000000000000081526004016101c3906104e0565b60405180910390fd5b600160008373ffffffffffffffffffffffffffffffffffffffff1673ffffffffffffffffffffffffffffffffffffffff168152602001908152602001600020549050919050565b60008060008084815260200190815260200160002060009054906101000a900473ffffffffffffffffffffffffffffffffffffffff169050600073ffffffffffffffffffffffffffffffffffffffff168173ffffffffffffffffffffffffffffffffffffffff161415915050919050565b6000819050919050565b61029781610284565b82525050565b60006020820190506102b2600083018461028e565b92915050565b600080fd5b6102c681610284565b81146102d157600080fd5b50565b6000813590506102e3816102bd565b92915050565b6000602082840312156102ff576102fe6102b8565b5b600061030d848285016102d4565b91505092915050565b600073ffffffffffffffffffffffffffffffffffffffff82169050919050565b600061034182610316565b9050919050565b61035181610336565b82525050565b600060208201905061036c6000830184610348565b92915050565b61037b81610336565b811461038657600080fd5b50565b60008135905061039881610372565b92915050565b6000602082840312156103b4576103b36102b8565b5b60006103c284828501610389565b91505092915050565b600082825260208201905092915050565b7f4572726f722c206f776e657220717565727920666f72206e6f6e65786973746560008201527f6e7420746f6b656e000000000000000000000000000000000000000000000000602082015250565b60006104386028836103cb565b9150610443826103dc565b604082019050919050565b600060208201905081810360008301526104678161042b565b9050919050565b7f4572726f722c207175657279206f6e206e6f6e6578697374656e74206164647260008201527f6573730000000000000000000000000000000000000000000000000000000000602082015250565b60006104ca6023836103cb565b91506104d58261046e565b604082019050919050565b600060208201905081810360008301526104f9816104bd565b905091905056fea2646970667358221220369fe6a5e88874c7acbb23dcc30c202abdf12058cb0cab309f35fd98baaea99e64736f6c634300080c0033",
  "immutableReferences": {},
  "source": "// SPDX-License-Identifier: MIT\r\npragma solidity ^0.8.0;\r\n\r\nimport './ERC721.sol';\r\n\r\ncontract ERC721Enumerable is ERC721 {\r\n    // array for all tokens\r\n    uint256[] private _allTokens;\r\n    // mapping from tokenId to position in allTokens (index)\r\n    mapping(uint256 => uint256 ) private _allTokensIndex;\r\n    //mapping of owner to list of all owner token ids\r\n    mapping(address => uint256[]) private _ownedTokens;\r\n    //mapping from token ID index to index of the owner tokens list\r\n    mapping(uint256 => uint256 ) private _ownedTokensIndex;\r\n\r\n    //function tokenByIndex(uint256 _index) external view returns (uint256) {\r\n\r\n    //}\r\n\r\n    //function tokenOfOwnerByIndex(address _owner, uint256 _index) external view {\r\n\r\n    //}\r\n    // inherit mint fuction to add extra functionality\r\n    function _mint(address to, uint256 tokenId) internal override(ERC721) {\r\n        super._mint(to, tokenId);\r\n        // 1. need to add tokens to the owner\r\n        // 2. add tokens to total supply, to all the tokens in the contract\r\n        // contract can have multiple coins going to multiple owners\r\n        _addTokensToTotalSupply(tokenId);\r\n    }\r\n\r\n    function _addTokensToTotalSupply(uint256 tokenId) private {\r\n        _allTokens.push(tokenId);\r\n    }\r\n\r\n    function totalSupply() public view returns(uint256) {\r\n        return _allTokens.length;\r\n    }\r\n\r\n}",
  "sourcePath": "C:\\Users\\sethh\\OneDrive\\Coding Courses\\Udemy\\NFT Course\\nft-marketplace-starter-kit-main\\src\\contracts\\ERC721Enumerable.sol",
  "compiler": {
    "name": "solc",
    "version": "0.8.12+commit.f00d7308.Emscripten.clang"
  },
  "schemaVersion": "3.4.5",
  "updatedAt": "2022-03-14T00:09:06.682Z",
  "devdoc": {
    "kind": "dev",
    "methods": {},
    "version": 1
  },
  "userdoc": {
    "kind": "user",
    "methods": {},
    "version": 1
  }
}