{
  "contractName": "ERC721",
  "abi": [
    {
      "anonymous": false,
      "inputs": [
        {
          "indexed": true,
          "internalType": "address",
          "name": "_owner",
          "type": "address"
        },
        {
          "indexed": true,
          "internalType": "address",
          "name": "_approved",
          "type": "address"
        },
        {
          "indexed": true,
          "internalType": "uint256",
          "name": "_tokenId",
          "type": "uint256"
        }
      ],
      "name": "Approval",
      "type": "event"
    },
    {
      "anonymous": false,
      "inputs": [
        {
          "indexed": true,
          "internalType": "address",
          "name": "_from",
          "type": "address"
        },
        {
          "indexed": true,
          "internalType": "address",
          "name": "_to",
          "type": "address"
        },
        {
          "indexed": true,
          "internalType": "uint256",
          "name": "_tokenId",
          "type": "uint256"
        }
      ],
      "name": "Transfer",
      "type": "event"
    },
    {
      "inputs": [
        {
          "internalType": "bytes4",
          "name": "interfaceID",
          "type": "bytes4"
        }
      ],
      "name": "supportsInterface",
      "outputs": [
        {
          "internalType": "bool",
          "name": "",
          "type": "bool"
        }
      ],
      "stateMutability": "view",
      "type": "function"
    },
    {
      "inputs": [
        {
          "internalType": "address",
          "name": "_owner",
          "type": "address"
        }
      ],
      "name": "balanceOf",
      "outputs": [
        {
          "internalType": "uint256",
          "name": "",
          "type": "uint256"
        }
      ],
      "stateMutability": "view",
      "type": "function"
    },
    {
      "inputs": [
        {
          "internalType": "uint256",
          "name": "_tokenId",
          "type": "uint256"
        }
      ],
      "name": "ownerOf",
      "outputs": [
        {
          "internalType": "address",
          "name": "",
          "type": "address"
        }
      ],
      "stateMutability": "view",
      "type": "function"
    },
    {
      "inputs": [
        {
          "internalType": "address",
          "name": "_from",
          "type": "address"
        },
        {
          "internalType": "address",
          "name": "_to",
          "type": "address"
        },
        {
          "internalType": "uint256",
          "name": "_tokenId",
          "type": "uint256"
        }
      ],
      "name": "transferFrom",
      "outputs": [],
      "stateMutability": "nonpayable",
      "type": "function"
    }
  ],
  "bytecode": "0x608060405234801561001057600080fd5b506100407f01ffc9a7a5cef8baa21ed3c5c0d7e23accb804b619e9333b597f47a0d84076e261004560201b60201c565b6101bc565b63ffffffff60e01b817bffffffffffffffffffffffffffffffffffffffffffffffffffffffff1916036100ad576040517f08c379a00000000000000000000000000000000000000000000000000000000081526004016100a49061019c565b60405180910390fd5b6001600080837bffffffffffffffffffffffffffffffffffffffffffffffffffffffff19167bffffffffffffffffffffffffffffffffffffffffffffffffffffffff1916815260200190815260200160002060006101000a81548160ff02191690831515021790555050565b600082825260208201905092915050565b7f4552433136352c20696e76616c696420696e746572666163652072657175657360008201527f7400000000000000000000000000000000000000000000000000000000000000602082015250565b6000610186602183610119565b91506101918261012a565b604082019050919050565b600060208201905081810360008301526101b581610179565b9050919050565b610cee806101cb6000396000f3fe608060405234801561001057600080fd5b506004361061004c5760003560e01c806301ffc9a71461005157806323b872dd146100815780636352211e1461009d57806370a08231146100cd575b600080fd5b61006b600480360381019061006691906106c9565b6100fd565b6040516100789190610711565b60405180910390f35b61009b600480360381019061009691906107c0565b610164565b005b6100b760048036038101906100b29190610813565b6101bd565b6040516100c4919061084f565b60405180910390f35b6100e760048036038101906100e2919061086a565b610248565b6040516100f491906108a6565b60405180910390f35b6000806000837bffffffffffffffffffffffffffffffffffffffffffffffffffffffff19167bffffffffffffffffffffffffffffffffffffffffffffffffffffffff1916815260200190815260200160002060009054906101000a900460ff169050919050565b61016e82826102ff565b6101ad576040517f08c379a00000000000000000000000000000000000000000000000000000000081526004016101a490610944565b60405180910390fd5b6101b883838361038e565b505050565b60006101c8826105fa565b610207576040517f08c379a00000000000000000000000000000000000000000000000000000000081526004016101fe906109d6565b60405180910390fd5b60006001600084815260200190815260200160002060009054906101000a900473ffffffffffffffffffffffffffffffffffffffff16905080915050919050565b60008073ffffffffffffffffffffffffffffffffffffffff168273ffffffffffffffffffffffffffffffffffffffff16036102b8576040517f08c379a00000000000000000000000000000000000000000000000000000000081526004016102af90610a68565b60405180910390fd5b600260008373ffffffffffffffffffffffffffffffffffffffff1673ffffffffffffffffffffffffffffffffffffffff168152602001908152602001600020549050919050565b600061030a826105fa565b610349576040517f08c379a000000000000000000000000000000000000000000000000000000000815260040161034090610ad4565b60405180910390fd5b6000610354836101bd565b90508073ffffffffffffffffffffffffffffffffffffffff168473ffffffffffffffffffffffffffffffffffffffff161491505092915050565b600073ffffffffffffffffffffffffffffffffffffffff168273ffffffffffffffffffffffffffffffffffffffff16036103fd576040517f08c379a00000000000000000000000000000000000000000000000000000000081526004016103f490610b66565b60405180910390fd5b6001600082815260200190815260200160002060009054906101000a900473ffffffffffffffffffffffffffffffffffffffff1673ffffffffffffffffffffffffffffffffffffffff168373ffffffffffffffffffffffffffffffffffffffff161461049e576040517f08c379a000000000000000000000000000000000000000000000000000000000815260040161049590610bf8565b60405180910390fd5b816001600083815260200190815260200160002060006101000a81548173ffffffffffffffffffffffffffffffffffffffff021916908373ffffffffffffffffffffffffffffffffffffffff160217905550600260008473ffffffffffffffffffffffffffffffffffffffff1673ffffffffffffffffffffffffffffffffffffffff168152602001908152602001600020600081548092919061054090610c47565b9190505550600260008373ffffffffffffffffffffffffffffffffffffffff1673ffffffffffffffffffffffffffffffffffffffff168152602001908152602001600020600081548092919061059590610c70565b9190505550808273ffffffffffffffffffffffffffffffffffffffff168473ffffffffffffffffffffffffffffffffffffffff167fddf252ad1be2c89b69c2b068fc378daa952ba7f163c4a11628f55a4df523b3ef60405160405180910390a4505050565b6000806001600084815260200190815260200160002060009054906101000a900473ffffffffffffffffffffffffffffffffffffffff169050600073ffffffffffffffffffffffffffffffffffffffff168173ffffffffffffffffffffffffffffffffffffffff161415915050919050565b600080fd5b60007fffffffff0000000000000000000000000000000000000000000000000000000082169050919050565b6106a681610671565b81146106b157600080fd5b50565b6000813590506106c38161069d565b92915050565b6000602082840312156106df576106de61066c565b5b60006106ed848285016106b4565b91505092915050565b60008115159050919050565b61070b816106f6565b82525050565b60006020820190506107266000830184610702565b92915050565b600073ffffffffffffffffffffffffffffffffffffffff82169050919050565b60006107578261072c565b9050919050565b6107678161074c565b811461077257600080fd5b50565b6000813590506107848161075e565b92915050565b6000819050919050565b61079d8161078a565b81146107a857600080fd5b50565b6000813590506107ba81610794565b92915050565b6000806000606084860312156107d9576107d861066c565b5b60006107e786828701610775565b93505060206107f886828701610775565b9250506040610809868287016107ab565b9150509250925092565b6000602082840312156108295761082861066c565b5b6000610837848285016107ab565b91505092915050565b6108498161074c565b82525050565b60006020820190506108646000830184610840565b92915050565b6000602082840312156108805761087f61066c565b5b600061088e84828501610775565b91505092915050565b6108a08161078a565b82525050565b60006020820190506108bb6000830184610897565b92915050565b600082825260208201905092915050565b7f4572726f722c207370656e646572206973206e6f7420617070726f766564206f60008201527f72206f776e657200000000000000000000000000000000000000000000000000602082015250565b600061092e6027836108c1565b9150610939826108d2565b604082019050919050565b6000602082019050818103600083015261095d81610921565b9050919050565b7f4572726f722c206f776e657220717565727920666f72206e6f6e65786973746560008201527f6e7420746f6b656e000000000000000000000000000000000000000000000000602082015250565b60006109c06028836108c1565b91506109cb82610964565b604082019050919050565b600060208201905081810360008301526109ef816109b3565b9050919050565b7f4572726f722c207175657279206f6e206e6f6e6578697374656e74206164647260008201527f6573730000000000000000000000000000000000000000000000000000000000602082015250565b6000610a526023836108c1565b9150610a5d826109f6565b604082019050919050565b60006020820190508181036000830152610a8181610a45565b9050919050565b7f4572726f722c20746f6b656e20646f6573206e6f742065786973740000000000600082015250565b6000610abe601b836108c1565b9150610ac982610a88565b602082019050919050565b60006020820190508181036000830152610aed81610ab1565b9050919050565b7f4572726f722c20455243373231207472616e7366657220746f20746865207a6560008201527f726f20616464726573732e000000000000000000000000000000000000000000602082015250565b6000610b50602b836108c1565b9150610b5b82610af4565b604082019050919050565b60006020820190508181036000830152610b7f81610b43565b9050919050565b7f4572726f722c2073656e64696e67206164647265737320646f6573206e6f742060008201527f6f776e20746f6b656e2100000000000000000000000000000000000000000000602082015250565b6000610be2602a836108c1565b9150610bed82610b86565b604082019050919050565b60006020820190508181036000830152610c1181610bd5565b9050919050565b7f4e487b7100000000000000000000000000000000000000000000000000000000600052601160045260246000fd5b6000610c528261078a565b915060008203610c6557610c64610c18565b5b600182039050919050565b6000610c7b8261078a565b91507fffffffffffffffffffffffffffffffffffffffffffffffffffffffffffffffff8203610cad57610cac610c18565b5b60018201905091905056fea2646970667358221220ca25124eb266587f1b74610f4e6f9ff064485dd602706facd9c2f8bc201bc06f64736f6c634300080d0033",
  "immutableReferences": {},
  "source": "// SPDX-License-Identifier: MIT\r\npragma solidity ^0.8.0;\r\n\r\nimport './ERC165.sol';\r\nimport './interfaces/IERC721.sol';\r\n\r\n/*\r\n    building out a mint function\r\n       a. nft to point to an address\r\n       b. keep track of the token ids\r\n       c. keep track of token owner addresses to token ids\r\n       d. keep track of how many tokens an owner address has\r\n       e. emit and keep track of logged info\r\n        create an event that emits a transfer log -contract addres, \r\n        where it is being minted to, the id\r\n*/\r\n\r\ncontract ERC721 is ERC165, IERC721 {\r\n\r\n    // mapping from token id to owner\r\n    mapping(uint256 => address) private _tokenOwner;\r\n    // mapping from owner to number of owned tokens\r\n    mapping(address => uint256) private _ownedTokens;\r\n    // tokens sent over need to keep track of approval process, tokenId to address\r\n    mapping(uint256 => address) private _tokenApprovals;\r\n\r\n    // balance of function to get balance return number of tokens owned by an owner\r\n    function balanceOf(address _owner)  public override view returns(uint256) {\r\n        require(_owner != address(0), \"Error, query on nonexistent address\");\r\n        return _ownedTokens[_owner];\r\n    }\r\n\r\n    // owner of function returns the owner of an NFT token id\r\n    function ownerOf(uint256 _tokenId) public override view returns (address) {\r\n        require(_exists(_tokenId), \"Error, owner query for nonexistent token\");\r\n        address owner = _tokenOwner[_tokenId];\r\n        return owner;\r\n    }\r\n\r\n    function _exists(uint256 tokenId) internal view returns(bool) {\r\n        // try to access owner of token and if exists returns true, not false\r\n        address owner = _tokenOwner[tokenId];\r\n        return owner != address(0);\r\n    }\r\n\r\n    function _mint(address to, uint256 tokenId) internal virtual {\r\n        // require the address is not blank\r\n        require(to != address(0), \"ERC721: minting to zero address\");\r\n        // require that token hasn't been minted already\r\n        require(!_exists(tokenId), \"ERC721: token already minted\");\r\n        // add address to owner of token id\r\n        _tokenOwner[tokenId] = to;\r\n        // add 1 to owned token counts for address\r\n        _ownedTokens[to] += 1;\r\n\r\n        // emit transfer event\r\n        emit Transfer(address(0), to, tokenId);\r\n    }\r\n\r\n    // function to transefer a token from sender to receiver \r\n    function _transferFrom(address _from, address _to, uint256 _tokenId) internal {\r\n        require(_to != address(0), \"Error, ERC721 transfer to the zero address.\");\r\n        require(_from == _tokenOwner[_tokenId], \"Error, sending address does not own token!\");\r\n        // change _tokenOwner fo _tokenId to the new _to address\r\n        _tokenOwner[_tokenId] = _to;\r\n        // remove one owned token from the from ownedtokens count\r\n        _ownedTokens[_from]--;\r\n        // add one owned token to the to ownedtokens count\r\n        _ownedTokens[_to]++;\r\n\r\n        // emit transfer emit\r\n        emit Transfer(_from, _to, _tokenId);\r\n    }\r\n\r\n    function transferFrom(address _from, address _to, uint256 _tokenId) public override {\r\n        require(_isApprovedOrOwner(_to, _tokenId), \"Error, spender is not approved or owner\");\r\n        _transferFrom(_from, _to, _tokenId);\r\n    }\r\n\r\n    // require that approver is the owner\r\n    // approve an address to a tokenId (token)\r\n    // require that we can't send tokens of the owner to the owner (current caller)\r\n    // update mapping of _tokenApprovals\r\n    /* function approve(address _to, uint256 tokenId) public {\r\n        address owner = ownerOf(tokenId);\r\n        require(_to != owner, \"Error, token transfer approval to current owner!\");\r\n        require(msg.sender == owner, \"Error, current caller is not the owner of the token!\");\r\n        _tokenApprovals[tokenId] = _to;\r\n        emit Approval(owner, _to, tokenId);\r\n    } */\r\n\r\n    function _isApprovedOrOwner(address spender, uint256 tokenId) internal view returns(bool) {\r\n        require(_exists(tokenId), \"Error, token does not exist\");\r\n        address owner = ownerOf(tokenId);\r\n        return(spender == owner /* || getApproved(tokenId) == spender */);\r\n    }\r\n    \r\n    // returns the approved send to address for the tokenId\r\n    /* function getApproved(uint256 tokenId) public view returns (address) {\r\n        require(_exists(tokenId), \"ERC721: approved query for nonexistent token\");\r\n\r\n        return _tokenApprovals[tokenId];\r\n    } */\r\n    \r\n}",
  "sourcePath": "C:\\Users\\sethh\\OneDrive\\Coding Courses\\Udemy\\NFT Course\\nft-marketplace-starter-kit-main\\src\\contracts\\ERC721.sol",
  "compiler": {
    "name": "solc",
    "version": "0.8.13+commit.abaa5c0e.Emscripten.clang"
  },
  "schemaVersion": "3.4.5",
  "updatedAt": "2022-03-23T01:59:34.380Z",
  "devdoc": {
    "kind": "dev",
    "methods": {},
    "version": 1
  },
  "userdoc": {
    "kind": "user",
    "methods": {},
    "version": 1
  }
}