{
  "contractName": "ERC721Enumerable",
  "abi": [
    {
      "anonymous": false,
      "inputs": [
        {
          "indexed": true,
          "internalType": "address",
          "name": "_owner",
          "type": "address"
        },
        {
          "indexed": true,
          "internalType": "address",
          "name": "_approved",
          "type": "address"
        },
        {
          "indexed": true,
          "internalType": "uint256",
          "name": "_tokenId",
          "type": "uint256"
        }
      ],
      "name": "Approval",
      "type": "event"
    },
    {
      "anonymous": false,
      "inputs": [
        {
          "indexed": true,
          "internalType": "address",
          "name": "_from",
          "type": "address"
        },
        {
          "indexed": true,
          "internalType": "address",
          "name": "_to",
          "type": "address"
        },
        {
          "indexed": true,
          "internalType": "uint256",
          "name": "_tokenId",
          "type": "uint256"
        }
      ],
      "name": "Transfer",
      "type": "event"
    },
    {
      "inputs": [
        {
          "internalType": "address",
          "name": "_owner",
          "type": "address"
        }
      ],
      "name": "balanceOf",
      "outputs": [
        {
          "internalType": "uint256",
          "name": "",
          "type": "uint256"
        }
      ],
      "stateMutability": "view",
      "type": "function"
    },
    {
      "inputs": [
        {
          "internalType": "uint256",
          "name": "_tokenId",
          "type": "uint256"
        }
      ],
      "name": "ownerOf",
      "outputs": [
        {
          "internalType": "address",
          "name": "",
          "type": "address"
        }
      ],
      "stateMutability": "view",
      "type": "function"
    },
    {
      "inputs": [
        {
          "internalType": "bytes4",
          "name": "interfaceID",
          "type": "bytes4"
        }
      ],
      "name": "supportsInterface",
      "outputs": [
        {
          "internalType": "bool",
          "name": "",
          "type": "bool"
        }
      ],
      "stateMutability": "view",
      "type": "function"
    },
    {
      "inputs": [
        {
          "internalType": "address",
          "name": "_from",
          "type": "address"
        },
        {
          "internalType": "address",
          "name": "_to",
          "type": "address"
        },
        {
          "internalType": "uint256",
          "name": "_tokenId",
          "type": "uint256"
        }
      ],
      "name": "transferFrom",
      "outputs": [],
      "stateMutability": "nonpayable",
      "type": "function"
    },
    {
      "inputs": [
        {
          "internalType": "uint256",
          "name": "_index",
          "type": "uint256"
        }
      ],
      "name": "tokenByIndex",
      "outputs": [
        {
          "internalType": "uint256",
          "name": "",
          "type": "uint256"
        }
      ],
      "stateMutability": "view",
      "type": "function"
    },
    {
      "inputs": [
        {
          "internalType": "address",
          "name": "_owner",
          "type": "address"
        },
        {
          "internalType": "uint256",
          "name": "_index",
          "type": "uint256"
        }
      ],
      "name": "tokenOfOwnerByIndex",
      "outputs": [
        {
          "internalType": "uint256",
          "name": "",
          "type": "uint256"
        }
      ],
      "stateMutability": "view",
      "type": "function"
    },
    {
      "inputs": [],
      "name": "totalSupply",
      "outputs": [
        {
          "internalType": "uint256",
          "name": "",
          "type": "uint256"
        }
      ],
      "stateMutability": "view",
      "type": "function"
    }
  ],
  "bytecode": "0x608060405234801561001057600080fd5b506100407f01ffc9a7a5cef8baa21ed3c5c0d7e23accb804b619e9333b597f47a0d84076e261004560201b60201c565b6101bc565b63ffffffff60e01b817bffffffffffffffffffffffffffffffffffffffffffffffffffffffff1916036100ad576040517f08c379a00000000000000000000000000000000000000000000000000000000081526004016100a49061019c565b60405180910390fd5b6001600080837bffffffffffffffffffffffffffffffffffffffffffffffffffffffff19167bffffffffffffffffffffffffffffffffffffffffffffffffffffffff1916815260200190815260200160002060006101000a81548160ff02191690831515021790555050565b600082825260208201905092915050565b7f4552433136352c20696e76616c696420696e746572666163652072657175657360008201527f7400000000000000000000000000000000000000000000000000000000000000602082015250565b6000610186602183610119565b91506101918261012a565b604082019050919050565b600060208201905081810360008301526101b581610179565b9050919050565b61105e806101cb6000396000f3fe608060405234801561001057600080fd5b506004361061007d5760003560e01c80632f745c591161005b5780632f745c59146100ec5780634f6ccce71461011c5780636352211e1461014c57806370a082311461017c5761007d565b806301ffc9a71461008257806318160ddd146100b257806323b872dd146100d0575b600080fd5b61009c600480360381019061009791906108a6565b6101ac565b6040516100a991906108ee565b60405180910390f35b6100ba610213565b6040516100c79190610922565b60405180910390f35b6100ea60048036038101906100e591906109c7565b610220565b005b61010660048036038101906101019190610a1a565b610279565b6040516101139190610922565b60405180910390f35b61013660048036038101906101319190610a5a565b610329565b6040516101439190610922565b60405180910390f35b61016660048036038101906101619190610a5a565b61039a565b6040516101739190610a96565b60405180910390f35b61019660048036038101906101919190610ab1565b610425565b6040516101a39190610922565b60405180910390f35b6000806000837bffffffffffffffffffffffffffffffffffffffffffffffffffffffff19167bffffffffffffffffffffffffffffffffffffffffffffffffffffffff1916815260200190815260200160002060009054906101000a900460ff169050919050565b6000600480549050905090565b61022a82826104dc565b610269576040517f08c379a000000000000000000000000000000000000000000000000000000000815260040161026090610b61565b60405180910390fd5b61027483838361056b565b505050565b60008161028584610425565b116102c5576040517f08c379a00000000000000000000000000000000000000000000000000000000081526004016102bc90610bf3565b60405180910390fd5b600660008473ffffffffffffffffffffffffffffffffffffffff1673ffffffffffffffffffffffffffffffffffffffff168152602001908152602001600020828154811061031657610315610c13565b5b9060005260206000200154905092915050565b6000610333610213565b8210610374576040517f08c379a000000000000000000000000000000000000000000000000000000000815260040161036b90610cb4565b60405180910390fd5b6004828154811061038857610387610c13565b5b90600052602060002001549050919050565b60006103a5826107d7565b6103e4576040517f08c379a00000000000000000000000000000000000000000000000000000000081526004016103db90610d46565b60405180910390fd5b60006001600084815260200190815260200160002060009054906101000a900473ffffffffffffffffffffffffffffffffffffffff16905080915050919050565b60008073ffffffffffffffffffffffffffffffffffffffff168273ffffffffffffffffffffffffffffffffffffffff1603610495576040517f08c379a000000000000000000000000000000000000000000000000000000000815260040161048c90610dd8565b60405180910390fd5b600260008373ffffffffffffffffffffffffffffffffffffffff1673ffffffffffffffffffffffffffffffffffffffff168152602001908152602001600020549050919050565b60006104e7826107d7565b610526576040517f08c379a000000000000000000000000000000000000000000000000000000000815260040161051d90610e44565b60405180910390fd5b60006105318361039a565b90508073ffffffffffffffffffffffffffffffffffffffff168473ffffffffffffffffffffffffffffffffffffffff161491505092915050565b600073ffffffffffffffffffffffffffffffffffffffff168273ffffffffffffffffffffffffffffffffffffffff16036105da576040517f08c379a00000000000000000000000000000000000000000000000000000000081526004016105d190610ed6565b60405180910390fd5b6001600082815260200190815260200160002060009054906101000a900473ffffffffffffffffffffffffffffffffffffffff1673ffffffffffffffffffffffffffffffffffffffff168373ffffffffffffffffffffffffffffffffffffffff161461067b576040517f08c379a000000000000000000000000000000000000000000000000000000000815260040161067290610f68565b60405180910390fd5b816001600083815260200190815260200160002060006101000a81548173ffffffffffffffffffffffffffffffffffffffff021916908373ffffffffffffffffffffffffffffffffffffffff160217905550600260008473ffffffffffffffffffffffffffffffffffffffff1673ffffffffffffffffffffffffffffffffffffffff168152602001908152602001600020600081548092919061071d90610fb7565b9190505550600260008373ffffffffffffffffffffffffffffffffffffffff1673ffffffffffffffffffffffffffffffffffffffff168152602001908152602001600020600081548092919061077290610fe0565b9190505550808273ffffffffffffffffffffffffffffffffffffffff168473ffffffffffffffffffffffffffffffffffffffff167fddf252ad1be2c89b69c2b068fc378daa952ba7f163c4a11628f55a4df523b3ef60405160405180910390a4505050565b6000806001600084815260200190815260200160002060009054906101000a900473ffffffffffffffffffffffffffffffffffffffff169050600073ffffffffffffffffffffffffffffffffffffffff168173ffffffffffffffffffffffffffffffffffffffff161415915050919050565b600080fd5b60007fffffffff0000000000000000000000000000000000000000000000000000000082169050919050565b6108838161084e565b811461088e57600080fd5b50565b6000813590506108a08161087a565b92915050565b6000602082840312156108bc576108bb610849565b5b60006108ca84828501610891565b91505092915050565b60008115159050919050565b6108e8816108d3565b82525050565b600060208201905061090360008301846108df565b92915050565b6000819050919050565b61091c81610909565b82525050565b60006020820190506109376000830184610913565b92915050565b600073ffffffffffffffffffffffffffffffffffffffff82169050919050565b60006109688261093d565b9050919050565b6109788161095d565b811461098357600080fd5b50565b6000813590506109958161096f565b92915050565b6109a481610909565b81146109af57600080fd5b50565b6000813590506109c18161099b565b92915050565b6000806000606084860312156109e0576109df610849565b5b60006109ee86828701610986565b93505060206109ff86828701610986565b9250506040610a10868287016109b2565b9150509250925092565b60008060408385031215610a3157610a30610849565b5b6000610a3f85828601610986565b9250506020610a50858286016109b2565b9150509250929050565b600060208284031215610a7057610a6f610849565b5b6000610a7e848285016109b2565b91505092915050565b610a908161095d565b82525050565b6000602082019050610aab6000830184610a87565b92915050565b600060208284031215610ac757610ac6610849565b5b6000610ad584828501610986565b91505092915050565b600082825260208201905092915050565b7f4572726f722c207370656e646572206973206e6f7420617070726f766564206f60008201527f72206f776e657200000000000000000000000000000000000000000000000000602082015250565b6000610b4b602783610ade565b9150610b5682610aef565b604082019050919050565b60006020820190508181036000830152610b7a81610b3e565b9050919050565b7f4572726f722c206f776e657220696e646578206973206f7574206f6620626f7560008201527f6e64732e00000000000000000000000000000000000000000000000000000000602082015250565b6000610bdd602483610ade565b9150610be882610b81565b604082019050919050565b60006020820190508181036000830152610c0c81610bd0565b9050919050565b7f4e487b7100000000000000000000000000000000000000000000000000000000600052603260045260246000fd5b7f4572726f722c20676c6f62616c20696e646578206f7574206f6620626f756e6460008201527f732e000000000000000000000000000000000000000000000000000000000000602082015250565b6000610c9e602283610ade565b9150610ca982610c42565b604082019050919050565b60006020820190508181036000830152610ccd81610c91565b9050919050565b7f4572726f722c206f776e657220717565727920666f72206e6f6e65786973746560008201527f6e7420746f6b656e000000000000000000000000000000000000000000000000602082015250565b6000610d30602883610ade565b9150610d3b82610cd4565b604082019050919050565b60006020820190508181036000830152610d5f81610d23565b9050919050565b7f4572726f722c207175657279206f6e206e6f6e6578697374656e74206164647260008201527f6573730000000000000000000000000000000000000000000000000000000000602082015250565b6000610dc2602383610ade565b9150610dcd82610d66565b604082019050919050565b60006020820190508181036000830152610df181610db5565b9050919050565b7f4572726f722c20746f6b656e20646f6573206e6f742065786973740000000000600082015250565b6000610e2e601b83610ade565b9150610e3982610df8565b602082019050919050565b60006020820190508181036000830152610e5d81610e21565b9050919050565b7f4572726f722c20455243373231207472616e7366657220746f20746865207a6560008201527f726f20616464726573732e000000000000000000000000000000000000000000602082015250565b6000610ec0602b83610ade565b9150610ecb82610e64565b604082019050919050565b60006020820190508181036000830152610eef81610eb3565b9050919050565b7f4572726f722c2073656e64696e67206164647265737320646f6573206e6f742060008201527f6f776e20746f6b656e2100000000000000000000000000000000000000000000602082015250565b6000610f52602a83610ade565b9150610f5d82610ef6565b604082019050919050565b60006020820190508181036000830152610f8181610f45565b9050919050565b7f4e487b7100000000000000000000000000000000000000000000000000000000600052601160045260246000fd5b6000610fc282610909565b915060008203610fd557610fd4610f88565b5b600182039050919050565b6000610feb82610909565b91507fffffffffffffffffffffffffffffffffffffffffffffffffffffffffffffffff820361101d5761101c610f88565b5b60018201905091905056fea264697066735822122002641093d10182fbb9f7b2613c035e5cbe41e97ec19cfba7ec1ea9e42f1916ab64736f6c634300080d0033",
  "immutableReferences": {},
  "source": "// SPDX-License-Identifier: MIT\r\npragma solidity ^0.8.0;\r\n\r\nimport './ERC721.sol';\r\n\r\ncontract ERC721Enumerable is ERC721 {\r\n    // array for all tokens\r\n    uint256[] private _allTokens;\r\n    // mapping from tokenId to position in allTokens (index)\r\n    mapping(uint256 => uint256 ) private _allTokensIndex;\r\n    //mapping of owner to list of all owner token ids\r\n    mapping(address => uint256[]) private _ownedTokens;\r\n    //mapping from token ID index to index of the owner tokens list\r\n    mapping(uint256 => uint256 ) private _ownedTokensIndex;\r\n\r\n    function tokenByIndex(uint256 _index) public view returns (uint256) {\r\n        // make sure index is less than length of total supply\r\n        require(_index < totalSupply(), \"Error, global index out of bounds.\");\r\n        return _allTokens[_index];\r\n    }\r\n\r\n    function tokenOfOwnerByIndex(address _owner, uint256 _index) public view returns(uint256) {\r\n        require(balanceOf(_owner) > _index, \"Error, owner index is out of bounds.\");\r\n        return _ownedTokens[_owner][_index];\r\n    }\r\n\r\n    // inherit mint fuction to add extra functionality\r\n    function _mint(address to, uint256 tokenId) internal override(ERC721) {\r\n        super._mint(to, tokenId);\r\n        // 1. need to add tokens to the owner\r\n        // 2. add tokens to total supply, to all the tokens in the contract\r\n        // contract can have multiple coins going to multiple owners\r\n        _addTokensToAllTokenEnumeration(tokenId);\r\n        _addTokensToOwnerEnumeration(to, tokenId);\r\n    }\r\n\r\n    // add tokens to the _alltokens array and set the position of the token id in all tokens index array\r\n    function _addTokensToAllTokenEnumeration(uint256 tokenId) private {\r\n        _allTokensIndex[tokenId] = _allTokens.length;\r\n        _allTokens.push(tokenId);    \r\n    }\r\n\r\n    // add address and tokenId to owner mapping of _ownedTokens\r\n    // ownedTokensIndex tokenId set to the address of ownedTokens position\r\n    function _addTokensToOwnerEnumeration(address to, uint256 tokenId) private {\r\n        _ownedTokensIndex[tokenId] = _ownedTokens[to].length;\r\n        _ownedTokens[to].push(tokenId);\r\n    }\r\n\r\n    // return the total supply of the all tokens array\r\n    function totalSupply() public view returns(uint256) {\r\n        return _allTokens.length;\r\n    }\r\n\r\n}",
  "sourcePath": "C:\\Users\\sethh\\OneDrive\\Coding Courses\\Udemy\\NFT Course\\nft-marketplace-starter-kit-main\\src\\contracts\\ERC721Enumerable.sol",
  "compiler": {
    "name": "solc",
    "version": "0.8.13+commit.abaa5c0e.Emscripten.clang"
  },
  "schemaVersion": "3.4.5",
  "updatedAt": "2022-03-23T01:59:34.397Z",
  "devdoc": {
    "kind": "dev",
    "methods": {},
    "version": 1
  },
  "userdoc": {
    "kind": "user",
    "methods": {},
    "version": 1
  }
}