{
  "contractName": "ERC721Enumerable",
  "abi": [
    {
      "inputs": [],
      "stateMutability": "nonpayable",
      "type": "constructor"
    },
    {
      "anonymous": false,
      "inputs": [
        {
          "indexed": true,
          "internalType": "address",
          "name": "_owner",
          "type": "address"
        },
        {
          "indexed": true,
          "internalType": "address",
          "name": "_approved",
          "type": "address"
        },
        {
          "indexed": true,
          "internalType": "uint256",
          "name": "_tokenId",
          "type": "uint256"
        }
      ],
      "name": "Approval",
      "type": "event"
    },
    {
      "anonymous": false,
      "inputs": [
        {
          "indexed": true,
          "internalType": "address",
          "name": "_from",
          "type": "address"
        },
        {
          "indexed": true,
          "internalType": "address",
          "name": "_to",
          "type": "address"
        },
        {
          "indexed": true,
          "internalType": "uint256",
          "name": "_tokenId",
          "type": "uint256"
        }
      ],
      "name": "Transfer",
      "type": "event"
    },
    {
      "inputs": [
        {
          "internalType": "address",
          "name": "_owner",
          "type": "address"
        }
      ],
      "name": "balanceOf",
      "outputs": [
        {
          "internalType": "uint256",
          "name": "",
          "type": "uint256"
        }
      ],
      "stateMutability": "view",
      "type": "function"
    },
    {
      "inputs": [
        {
          "internalType": "uint256",
          "name": "_tokenId",
          "type": "uint256"
        }
      ],
      "name": "ownerOf",
      "outputs": [
        {
          "internalType": "address",
          "name": "",
          "type": "address"
        }
      ],
      "stateMutability": "view",
      "type": "function"
    },
    {
      "inputs": [
        {
          "internalType": "bytes4",
          "name": "interfaceID",
          "type": "bytes4"
        }
      ],
      "name": "supportsInterface",
      "outputs": [
        {
          "internalType": "bool",
          "name": "",
          "type": "bool"
        }
      ],
      "stateMutability": "view",
      "type": "function"
    },
    {
      "inputs": [
        {
          "internalType": "address",
          "name": "_from",
          "type": "address"
        },
        {
          "internalType": "address",
          "name": "_to",
          "type": "address"
        },
        {
          "internalType": "uint256",
          "name": "_tokenId",
          "type": "uint256"
        }
      ],
      "name": "transferFrom",
      "outputs": [],
      "stateMutability": "nonpayable",
      "type": "function"
    },
    {
      "inputs": [
        {
          "internalType": "uint256",
          "name": "_index",
          "type": "uint256"
        }
      ],
      "name": "tokenByIndex",
      "outputs": [
        {
          "internalType": "uint256",
          "name": "",
          "type": "uint256"
        }
      ],
      "stateMutability": "view",
      "type": "function"
    },
    {
      "inputs": [
        {
          "internalType": "address",
          "name": "_owner",
          "type": "address"
        },
        {
          "internalType": "uint256",
          "name": "_index",
          "type": "uint256"
        }
      ],
      "name": "tokenOfOwnerByIndex",
      "outputs": [
        {
          "internalType": "uint256",
          "name": "",
          "type": "uint256"
        }
      ],
      "stateMutability": "view",
      "type": "function"
    },
    {
      "inputs": [],
      "name": "totalSupply",
      "outputs": [
        {
          "internalType": "uint256",
          "name": "",
          "type": "uint256"
        }
      ],
      "stateMutability": "view",
      "type": "function"
    }
  ],
  "bytecode": "0x60806040523480156200001157600080fd5b50620000437f01ffc9a7a5cef8baa21ed3c5c0d7e23accb804b619e9333b597f47a0d84076e26200013360201b60201c565b620000b87f22c82707ba960a14c7592ffb6b8cfaa073fed0048a84cc7fa41f6b5bd8e7f2e47f3a6eb71757dfc6e784c1459d26270140c2c147d95ca985c80026fc5301c3eca17f8a7e378434598edc36d108689a030cbc9d7d465de4f74c71bae1028eed6a881b18186200013360201b60201c565b6200012d7f8230223f691b981717299fae9549350a0d894555723531f02108b1f522c1a7977f6da5e1284143cdd2d15038a59bde3be031250f00291d64494c12d967b3a4e0c37fc53637662700e6c65104059db8bba34439e0c32483ab7c34e3ccae52c739549518186200013360201b60201c565b620002b3565b63ffffffff60e01b817bffffffffffffffffffffffffffffffffffffffffffffffffffffffff1916036200019e576040517f08c379a0000000000000000000000000000000000000000000000000000000008152600401620001959062000291565b60405180910390fd5b6001600080837bffffffffffffffffffffffffffffffffffffffffffffffffffffffff19167bffffffffffffffffffffffffffffffffffffffffffffffffffffffff1916815260200190815260200160002060006101000a81548160ff02191690831515021790555050565b600082825260208201905092915050565b7f4552433136352c20696e76616c696420696e746572666163652072657175657360008201527f7400000000000000000000000000000000000000000000000000000000000000602082015250565b6000620002796021836200020a565b915062000286826200021b565b604082019050919050565b60006020820190508181036000830152620002ac816200026a565b9050919050565b61117c80620002c36000396000f3fe608060405234801561001057600080fd5b506004361061007d5760003560e01c80632f745c591161005b5780632f745c59146100ec5780634f6ccce71461011c5780636352211e1461014c57806370a082311461017c5761007d565b806301ffc9a71461008257806318160ddd146100b257806323b872dd146100d0575b600080fd5b61009c6004803603810190610097919061093f565b6101ac565b6040516100a99190610987565b60405180910390f35b6100ba610213565b6040516100c791906109bb565b60405180910390f35b6100ea60048036038101906100e59190610a60565b610220565b005b61010660048036038101906101019190610ab3565b610279565b60405161011391906109bb565b60405180910390f35b61013660048036038101906101319190610af3565b610329565b60405161014391906109bb565b60405180910390f35b61016660048036038101906101619190610af3565b61039a565b6040516101739190610b2f565b60405180910390f35b61019660048036038101906101919190610b4a565b610425565b6040516101a391906109bb565b60405180910390f35b6000806000837bffffffffffffffffffffffffffffffffffffffffffffffffffffffff19167bffffffffffffffffffffffffffffffffffffffffffffffffffffffff1916815260200190815260200160002060009054906101000a900460ff169050919050565b6000600480549050905090565b61022a82826104e3565b610269576040517f08c379a000000000000000000000000000000000000000000000000000000000815260040161026090610bfa565b60405180910390fd5b610274838383610572565b505050565b60008161028584610425565b116102c5576040517f08c379a00000000000000000000000000000000000000000000000000000000081526004016102bc90610c8c565b60405180910390fd5b600660008473ffffffffffffffffffffffffffffffffffffffff1673ffffffffffffffffffffffffffffffffffffffff168152602001908152602001600020828154811061031657610315610cac565b5b9060005260206000200154905092915050565b6000610333610213565b8210610374576040517f08c379a000000000000000000000000000000000000000000000000000000000815260040161036b90610d4d565b60405180910390fd5b6004828154811061038857610387610cac565b5b90600052602060002001549050919050565b60006103a5826107c2565b6103e4576040517f08c379a00000000000000000000000000000000000000000000000000000000081526004016103db90610ddf565b60405180910390fd5b60006001600084815260200190815260200160002060009054906101000a900473ffffffffffffffffffffffffffffffffffffffff16905080915050919050565b60008073ffffffffffffffffffffffffffffffffffffffff168273ffffffffffffffffffffffffffffffffffffffff1603610495576040517f08c379a000000000000000000000000000000000000000000000000000000000815260040161048c90610e71565b60405180910390fd5b6104dc600260008473ffffffffffffffffffffffffffffffffffffffff1673ffffffffffffffffffffffffffffffffffffffff168152602001908152602001600020610834565b9050919050565b60006104ee826107c2565b61052d576040517f08c379a000000000000000000000000000000000000000000000000000000000815260040161052490610edd565b60405180910390fd5b60006105388361039a565b90508073ffffffffffffffffffffffffffffffffffffffff168473ffffffffffffffffffffffffffffffffffffffff161491505092915050565b600073ffffffffffffffffffffffffffffffffffffffff168273ffffffffffffffffffffffffffffffffffffffff16036105e1576040517f08c379a00000000000000000000000000000000000000000000000000000000081526004016105d890610f6f565b60405180910390fd5b6001600082815260200190815260200160002060009054906101000a900473ffffffffffffffffffffffffffffffffffffffff1673ffffffffffffffffffffffffffffffffffffffff168373ffffffffffffffffffffffffffffffffffffffff1614610682576040517f08c379a000000000000000000000000000000000000000000000000000000000815260040161067990611001565b60405180910390fd5b816001600083815260200190815260200160002060006101000a81548173ffffffffffffffffffffffffffffffffffffffff021916908373ffffffffffffffffffffffffffffffffffffffff16021790555061071b600260008573ffffffffffffffffffffffffffffffffffffffff1673ffffffffffffffffffffffffffffffffffffffff168152602001908152602001600020610842565b610762600260008473ffffffffffffffffffffffffffffffffffffffff1673ffffffffffffffffffffffffffffffffffffffff168152602001908152602001600020610865565b808273ffffffffffffffffffffffffffffffffffffffff168473ffffffffffffffffffffffffffffffffffffffff167fddf252ad1be2c89b69c2b068fc378daa952ba7f163c4a11628f55a4df523b3ef60405160405180910390a4505050565b6000806001600084815260200190815260200160002060009054906101000a900473ffffffffffffffffffffffffffffffffffffffff169050600073ffffffffffffffffffffffffffffffffffffffff168173ffffffffffffffffffffffffffffffffffffffff161415915050919050565b600081600001549050919050565b61085a6001826000015461088490919063ffffffff16565b816000018190555050565b600181600001600082825461087a9190611050565b9250508190555050565b600080828461089391906110a6565b9050838311156108d8576040517f08c379a00000000000000000000000000000000000000000000000000000000081526004016108cf90611126565b60405180910390fd5b8091505092915050565b600080fd5b60007fffffffff0000000000000000000000000000000000000000000000000000000082169050919050565b61091c816108e7565b811461092757600080fd5b50565b60008135905061093981610913565b92915050565b600060208284031215610955576109546108e2565b5b60006109638482850161092a565b91505092915050565b60008115159050919050565b6109818161096c565b82525050565b600060208201905061099c6000830184610978565b92915050565b6000819050919050565b6109b5816109a2565b82525050565b60006020820190506109d060008301846109ac565b92915050565b600073ffffffffffffffffffffffffffffffffffffffff82169050919050565b6000610a01826109d6565b9050919050565b610a11816109f6565b8114610a1c57600080fd5b50565b600081359050610a2e81610a08565b92915050565b610a3d816109a2565b8114610a4857600080fd5b50565b600081359050610a5a81610a34565b92915050565b600080600060608486031215610a7957610a786108e2565b5b6000610a8786828701610a1f565b9350506020610a9886828701610a1f565b9250506040610aa986828701610a4b565b9150509250925092565b60008060408385031215610aca57610ac96108e2565b5b6000610ad885828601610a1f565b9250506020610ae985828601610a4b565b9150509250929050565b600060208284031215610b0957610b086108e2565b5b6000610b1784828501610a4b565b91505092915050565b610b29816109f6565b82525050565b6000602082019050610b446000830184610b20565b92915050565b600060208284031215610b6057610b5f6108e2565b5b6000610b6e84828501610a1f565b91505092915050565b600082825260208201905092915050565b7f4572726f722c207370656e646572206973206e6f7420617070726f766564206f60008201527f72206f776e657200000000000000000000000000000000000000000000000000602082015250565b6000610be4602783610b77565b9150610bef82610b88565b604082019050919050565b60006020820190508181036000830152610c1381610bd7565b9050919050565b7f4572726f722c206f776e657220696e646578206973206f7574206f6620626f7560008201527f6e64732e00000000000000000000000000000000000000000000000000000000602082015250565b6000610c76602483610b77565b9150610c8182610c1a565b604082019050919050565b60006020820190508181036000830152610ca581610c69565b9050919050565b7f4e487b7100000000000000000000000000000000000000000000000000000000600052603260045260246000fd5b7f4572726f722c20676c6f62616c20696e646578206f7574206f6620626f756e6460008201527f732e000000000000000000000000000000000000000000000000000000000000602082015250565b6000610d37602283610b77565b9150610d4282610cdb565b604082019050919050565b60006020820190508181036000830152610d6681610d2a565b9050919050565b7f4572726f722c206f776e657220717565727920666f72206e6f6e65786973746560008201527f6e7420746f6b656e000000000000000000000000000000000000000000000000602082015250565b6000610dc9602883610b77565b9150610dd482610d6d565b604082019050919050565b60006020820190508181036000830152610df881610dbc565b9050919050565b7f4572726f722c207175657279206f6e206e6f6e6578697374656e74206164647260008201527f6573730000000000000000000000000000000000000000000000000000000000602082015250565b6000610e5b602383610b77565b9150610e6682610dff565b604082019050919050565b60006020820190508181036000830152610e8a81610e4e565b9050919050565b7f4572726f722c20746f6b656e20646f6573206e6f742065786973740000000000600082015250565b6000610ec7601b83610b77565b9150610ed282610e91565b602082019050919050565b60006020820190508181036000830152610ef681610eba565b9050919050565b7f4572726f722c20455243373231207472616e7366657220746f20746865207a6560008201527f726f20616464726573732e000000000000000000000000000000000000000000602082015250565b6000610f59602b83610b77565b9150610f6482610efd565b604082019050919050565b60006020820190508181036000830152610f8881610f4c565b9050919050565b7f4572726f722c2073656e64696e67206164647265737320646f6573206e6f742060008201527f6f776e20746f6b656e2100000000000000000000000000000000000000000000602082015250565b6000610feb602a83610b77565b9150610ff682610f8f565b604082019050919050565b6000602082019050818103600083015261101a81610fde565b9050919050565b7f4e487b7100000000000000000000000000000000000000000000000000000000600052601160045260246000fd5b600061105b826109a2565b9150611066836109a2565b9250827fffffffffffffffffffffffffffffffffffffffffffffffffffffffffffffffff0382111561109b5761109a611021565b5b828201905092915050565b60006110b1826109a2565b91506110bc836109a2565b9250828210156110cf576110ce611021565b5b828203905092915050565b7f536166654d6174683a207375627472616374696f6e206f766572666c6f770000600082015250565b6000611110601e83610b77565b915061111b826110da565b602082019050919050565b6000602082019050818103600083015261113f81611103565b905091905056fea26469706673582212200e8812449281a0a504662bd917620837f85e96f7fe8755f122b0cccc466057f764736f6c634300080e0033",
  "immutableReferences": {},
  "source": "// SPDX-License-Identifier: MIT\r\npragma solidity ^0.8.0;\r\n\r\nimport './ERC721.sol';\r\nimport './interfaces/IERC721Enumerable.sol';\r\n\r\ncontract ERC721Enumerable is ERC721, IERC721Enumerable {\r\n    // array for all tokens\r\n    uint256[] private _allTokens;\r\n    // mapping from tokenId to position in allTokens (index)\r\n    mapping(uint256 => uint256 ) private _allTokensIndex;\r\n    //mapping of owner to list of all owner token ids\r\n    mapping(address => uint256[]) private _ownedTokens;\r\n    //mapping from token ID index to index of the owner tokens list\r\n    mapping(uint256 => uint256 ) private _ownedTokensIndex;\r\n\r\n    constructor() {\r\n        _registerInterface(bytes4(keccak256('totalSupply(bytes4)') ^ \r\n                                  keccak256('tokenByIndex(bytes4)') ^\r\n                                  keccak256('tokenOfOwnerByIndex(bytes4)')));\r\n    }\r\n\r\n    function tokenByIndex(uint256 _index) public override view returns (uint256) {\r\n        // make sure index is less than length of total supply\r\n        require(_index < totalSupply(), \"Error, global index out of bounds.\");\r\n        return _allTokens[_index];\r\n    }\r\n\r\n    function tokenOfOwnerByIndex(address _owner, uint256 _index) public override view returns(uint256) {\r\n        require(balanceOf(_owner) > _index, \"Error, owner index is out of bounds.\");\r\n        return _ownedTokens[_owner][_index];\r\n    }\r\n\r\n    // inherit mint fuction to add extra functionality\r\n    function _mint(address to, uint256 tokenId) internal override(ERC721) {\r\n        super._mint(to, tokenId);\r\n        // 1. need to add tokens to the owner\r\n        // 2. add tokens to total supply, to all the tokens in the contract\r\n        // contract can have multiple coins going to multiple owners\r\n        _addTokensToAllTokenEnumeration(tokenId);\r\n        _addTokensToOwnerEnumeration(to, tokenId);\r\n    }\r\n\r\n    // add tokens to the _alltokens array and set the position of the token id in all tokens index array\r\n    function _addTokensToAllTokenEnumeration(uint256 tokenId) private {\r\n        _allTokensIndex[tokenId] = _allTokens.length;\r\n        _allTokens.push(tokenId);    \r\n    }\r\n\r\n    // add address and tokenId to owner mapping of _ownedTokens\r\n    // ownedTokensIndex tokenId set to the address of ownedTokens position\r\n    function _addTokensToOwnerEnumeration(address to, uint256 tokenId) private {\r\n        _ownedTokensIndex[tokenId] = _ownedTokens[to].length;\r\n        _ownedTokens[to].push(tokenId);\r\n    }\r\n\r\n    // return the total supply of the all tokens array\r\n    function totalSupply() public override view returns(uint256) {\r\n        return _allTokens.length;\r\n    }\r\n\r\n}",
  "sourcePath": "C:\\Users\\sethh\\OneDrive\\Coding Courses\\Udemy\\NFT Course\\nft-marketplace-starter-kit-main\\src\\contracts\\ERC721Enumerable.sol",
  "compiler": {
    "name": "solc",
    "version": "0.8.14+commit.80d49f37.Emscripten.clang"
  },
  "schemaVersion": "3.4.5",
  "updatedAt": "2022-06-08T01:55:15.059Z",
  "devdoc": {
    "kind": "dev",
    "methods": {},
    "version": 1
  },
  "userdoc": {
    "kind": "user",
    "methods": {},
    "version": 1
  }
}