{
  "contractName": "ERC721Enumerable",
  "abi": [
    {
      "anonymous": false,
      "inputs": [
        {
          "indexed": true,
          "internalType": "address",
          "name": "from",
          "type": "address"
        },
        {
          "indexed": true,
          "internalType": "address",
          "name": "to",
          "type": "address"
        },
        {
          "indexed": true,
          "internalType": "uint256",
          "name": "tokenId",
          "type": "uint256"
        }
      ],
      "name": "Transfer",
      "type": "event"
    },
    {
      "inputs": [
        {
          "internalType": "address",
          "name": "_owner",
          "type": "address"
        }
      ],
      "name": "balanceOf",
      "outputs": [
        {
          "internalType": "uint256",
          "name": "",
          "type": "uint256"
        }
      ],
      "stateMutability": "view",
      "type": "function"
    },
    {
      "inputs": [
        {
          "internalType": "uint256",
          "name": "_tokenId",
          "type": "uint256"
        }
      ],
      "name": "ownerOf",
      "outputs": [
        {
          "internalType": "address",
          "name": "",
          "type": "address"
        }
      ],
      "stateMutability": "view",
      "type": "function"
    },
    {
      "inputs": [
        {
          "internalType": "uint256",
          "name": "_index",
          "type": "uint256"
        }
      ],
      "name": "tokenByIndex",
      "outputs": [
        {
          "internalType": "uint256",
          "name": "",
          "type": "uint256"
        }
      ],
      "stateMutability": "view",
      "type": "function"
    },
    {
      "inputs": [
        {
          "internalType": "address",
          "name": "_owner",
          "type": "address"
        },
        {
          "internalType": "uint256",
          "name": "_index",
          "type": "uint256"
        }
      ],
      "name": "tokenOfOwnerByIndex",
      "outputs": [
        {
          "internalType": "uint256",
          "name": "",
          "type": "uint256"
        }
      ],
      "stateMutability": "view",
      "type": "function"
    },
    {
      "inputs": [],
      "name": "totalSupply",
      "outputs": [
        {
          "internalType": "uint256",
          "name": "",
          "type": "uint256"
        }
      ],
      "stateMutability": "view",
      "type": "function"
    }
  ],
  "bytecode": "0x608060405234801561001057600080fd5b50610860806100206000396000f3fe608060405234801561001057600080fd5b50600436106100575760003560e01c806318160ddd1461005c5780632f745c591461007a5780634f6ccce7146100aa5780636352211e146100da57806370a082311461010a575b600080fd5b61006461013a565b6040516100719190610434565b60405180910390f35b610094600480360381019061008f91906104de565b610147565b6040516100a19190610434565b60405180910390f35b6100c460048036038101906100bf919061051e565b6101f7565b6040516100d19190610434565b60405180910390f35b6100f460048036038101906100ef919061051e565b610268565b604051610101919061055a565b60405180910390f35b610124600480360381019061011f9190610575565b6102f2565b6040516101319190610434565b60405180910390f35b6000600280549050905090565b600081610153846102f2565b11610193576040517f08c379a000000000000000000000000000000000000000000000000000000000815260040161018a90610625565b60405180910390fd5b600460008473ffffffffffffffffffffffffffffffffffffffff1673ffffffffffffffffffffffffffffffffffffffff16815260200190815260200160002082815481106101e4576101e3610645565b5b9060005260206000200154905092915050565b600061020161013a565b8210610242576040517f08c379a0000000000000000000000000000000000000000000000000000000008152600401610239906106e6565b60405180910390fd5b6002828154811061025657610255610645565b5b90600052602060002001549050919050565b6000610273826103aa565b6102b2576040517f08c379a00000000000000000000000000000000000000000000000000000000081526004016102a990610778565b60405180910390fd5b600080600084815260200190815260200160002060009054906101000a900473ffffffffffffffffffffffffffffffffffffffff16905080915050919050565b60008073ffffffffffffffffffffffffffffffffffffffff168273ffffffffffffffffffffffffffffffffffffffff161415610363576040517f08c379a000000000000000000000000000000000000000000000000000000000815260040161035a9061080a565b60405180910390fd5b600160008373ffffffffffffffffffffffffffffffffffffffff1673ffffffffffffffffffffffffffffffffffffffff168152602001908152602001600020549050919050565b60008060008084815260200190815260200160002060009054906101000a900473ffffffffffffffffffffffffffffffffffffffff169050600073ffffffffffffffffffffffffffffffffffffffff168173ffffffffffffffffffffffffffffffffffffffff161415915050919050565b6000819050919050565b61042e8161041b565b82525050565b60006020820190506104496000830184610425565b92915050565b600080fd5b600073ffffffffffffffffffffffffffffffffffffffff82169050919050565b600061047f82610454565b9050919050565b61048f81610474565b811461049a57600080fd5b50565b6000813590506104ac81610486565b92915050565b6104bb8161041b565b81146104c657600080fd5b50565b6000813590506104d8816104b2565b92915050565b600080604083850312156104f5576104f461044f565b5b60006105038582860161049d565b9250506020610514858286016104c9565b9150509250929050565b6000602082840312156105345761053361044f565b5b6000610542848285016104c9565b91505092915050565b61055481610474565b82525050565b600060208201905061056f600083018461054b565b92915050565b60006020828403121561058b5761058a61044f565b5b60006105998482850161049d565b91505092915050565b600082825260208201905092915050565b7f4572726f722c206f776e657220696e646578206973206f7574206f6620626f7560008201527f6e64732e00000000000000000000000000000000000000000000000000000000602082015250565b600061060f6024836105a2565b915061061a826105b3565b604082019050919050565b6000602082019050818103600083015261063e81610602565b9050919050565b7f4e487b7100000000000000000000000000000000000000000000000000000000600052603260045260246000fd5b7f4572726f722c20676c6f62616c20696e646578206f7574206f6620626f756e6460008201527f732e000000000000000000000000000000000000000000000000000000000000602082015250565b60006106d06022836105a2565b91506106db82610674565b604082019050919050565b600060208201905081810360008301526106ff816106c3565b9050919050565b7f4572726f722c206f776e657220717565727920666f72206e6f6e65786973746560008201527f6e7420746f6b656e000000000000000000000000000000000000000000000000602082015250565b60006107626028836105a2565b915061076d82610706565b604082019050919050565b6000602082019050818103600083015261079181610755565b9050919050565b7f4572726f722c207175657279206f6e206e6f6e6578697374656e74206164647260008201527f6573730000000000000000000000000000000000000000000000000000000000602082015250565b60006107f46023836105a2565b91506107ff82610798565b604082019050919050565b60006020820190508181036000830152610823816107e7565b905091905056fea2646970667358221220a983e7eba84a4bf7eed49658496a4dae345ff212aa04fbcabb41374f9db768c164736f6c634300080c0033",
  "immutableReferences": {},
  "source": "// SPDX-License-Identifier: MIT\r\npragma solidity ^0.8.0;\r\n\r\nimport './ERC721.sol';\r\n\r\ncontract ERC721Enumerable is ERC721 {\r\n    // array for all tokens\r\n    uint256[] private _allTokens;\r\n    // mapping from tokenId to position in allTokens (index)\r\n    mapping(uint256 => uint256 ) private _allTokensIndex;\r\n    //mapping of owner to list of all owner token ids\r\n    mapping(address => uint256[]) private _ownedTokens;\r\n    //mapping from token ID index to index of the owner tokens list\r\n    mapping(uint256 => uint256 ) private _ownedTokensIndex;\r\n\r\n    function tokenByIndex(uint256 _index) public view returns (uint256) {\r\n        // make sure index is less than length of total supply\r\n        require(_index < totalSupply(), \"Error, global index out of bounds.\");\r\n        return _allTokens[_index];\r\n    }\r\n\r\n    function tokenOfOwnerByIndex(address _owner, uint256 _index) public view returns(uint256) {\r\n        require(balanceOf(_owner) > _index, \"Error, owner index is out of bounds.\");\r\n        return _ownedTokens[_owner][_index];\r\n    }\r\n\r\n    // inherit mint fuction to add extra functionality\r\n    function _mint(address to, uint256 tokenId) internal override(ERC721) {\r\n        super._mint(to, tokenId);\r\n        // 1. need to add tokens to the owner\r\n        // 2. add tokens to total supply, to all the tokens in the contract\r\n        // contract can have multiple coins going to multiple owners\r\n        _addTokensToAllTokenEnumeration(tokenId);\r\n        _addTokensToOwnerEnumeration(to, tokenId);\r\n    }\r\n\r\n    // add tokens to the _alltokens array and set the position of the token id in all tokens index array\r\n    function _addTokensToAllTokenEnumeration(uint256 tokenId) private {\r\n        _allTokensIndex[tokenId] = _allTokens.length;\r\n        _allTokens.push(tokenId);    \r\n    }\r\n\r\n    // add address and tokenId to owner mapping of _ownedTokens\r\n    // ownedTokensIndex tokenId set to the address of ownedTokens position\r\n    function _addTokensToOwnerEnumeration(address to, uint256 tokenId) private {\r\n        _ownedTokensIndex[tokenId] = _ownedTokens[to].length;\r\n        _ownedTokens[to].push(tokenId);\r\n    }\r\n\r\n    // return the total supply of the all tokens array\r\n    function totalSupply() public view returns(uint256) {\r\n        return _allTokens.length;\r\n    }\r\n\r\n}",
  "sourcePath": "C:\\Users\\sethh\\OneDrive\\Coding Courses\\Udemy\\NFT Course\\nft-marketplace-starter-kit-main\\src\\contracts\\ERC721Enumerable.sol",
  "compiler": {
    "name": "solc",
    "version": "0.8.12+commit.f00d7308.Emscripten.clang"
  },
  "schemaVersion": "3.4.5",
  "updatedAt": "2022-03-15T02:50:45.868Z",
  "devdoc": {
    "kind": "dev",
    "methods": {},
    "version": 1
  },
  "userdoc": {
    "kind": "user",
    "methods": {},
    "version": 1
  }
}