{
  "contractName": "ERC721",
  "abi": [
    {
      "anonymous": false,
      "inputs": [
        {
          "indexed": true,
          "internalType": "address",
          "name": "from",
          "type": "address"
        },
        {
          "indexed": true,
          "internalType": "address",
          "name": "to",
          "type": "address"
        },
        {
          "indexed": true,
          "internalType": "uint256",
          "name": "tokenId",
          "type": "uint256"
        }
      ],
      "name": "Transfer",
      "type": "event"
    },
    {
      "inputs": [
        {
          "internalType": "address",
          "name": "_owner",
          "type": "address"
        }
      ],
      "name": "balanceOf",
      "outputs": [
        {
          "internalType": "uint256",
          "name": "",
          "type": "uint256"
        }
      ],
      "stateMutability": "view",
      "type": "function"
    },
    {
      "inputs": [
        {
          "internalType": "uint256",
          "name": "_tokenId",
          "type": "uint256"
        }
      ],
      "name": "ownerOf",
      "outputs": [
        {
          "internalType": "address",
          "name": "",
          "type": "address"
        }
      ],
      "stateMutability": "view",
      "type": "function"
    }
  ],
  "bytecode": "0x608060405234801561001057600080fd5b506104da806100206000396000f3fe608060405234801561001057600080fd5b50600436106100365760003560e01c80636352211e1461003b57806370a082311461006b575b600080fd5b61005560048036038101906100509190610289565b61009b565b60405161006291906102f7565b60405180910390f35b6100856004803603810190610080919061033e565b610125565b604051610092919061037a565b60405180910390f35b60006100a6826101dd565b6100e5576040517f08c379a00000000000000000000000000000000000000000000000000000000081526004016100dc906103f2565b60405180910390fd5b600080600084815260200190815260200160002060009054906101000a900473ffffffffffffffffffffffffffffffffffffffff16905080915050919050565b60008073ffffffffffffffffffffffffffffffffffffffff168273ffffffffffffffffffffffffffffffffffffffff161415610196576040517f08c379a000000000000000000000000000000000000000000000000000000000815260040161018d90610484565b60405180910390fd5b600160008373ffffffffffffffffffffffffffffffffffffffff1673ffffffffffffffffffffffffffffffffffffffff168152602001908152602001600020549050919050565b60008060008084815260200190815260200160002060009054906101000a900473ffffffffffffffffffffffffffffffffffffffff169050600073ffffffffffffffffffffffffffffffffffffffff168173ffffffffffffffffffffffffffffffffffffffff161415915050919050565b600080fd5b6000819050919050565b61026681610253565b811461027157600080fd5b50565b6000813590506102838161025d565b92915050565b60006020828403121561029f5761029e61024e565b5b60006102ad84828501610274565b91505092915050565b600073ffffffffffffffffffffffffffffffffffffffff82169050919050565b60006102e1826102b6565b9050919050565b6102f1816102d6565b82525050565b600060208201905061030c60008301846102e8565b92915050565b61031b816102d6565b811461032657600080fd5b50565b60008135905061033881610312565b92915050565b6000602082840312156103545761035361024e565b5b600061036284828501610329565b91505092915050565b61037481610253565b82525050565b600060208201905061038f600083018461036b565b92915050565b600082825260208201905092915050565b7f4572726f722c20746f6b656e496420646f6573206e6f74206578697374000000600082015250565b60006103dc601d83610395565b91506103e7826103a6565b602082019050919050565b6000602082019050818103600083015261040b816103cf565b9050919050565b7f4572726f722c207175657279206f6e206e6f6e6578697374656e74206164647260008201527f6573730000000000000000000000000000000000000000000000000000000000602082015250565b600061046e602383610395565b915061047982610412565b604082019050919050565b6000602082019050818103600083015261049d81610461565b905091905056fea26469706673582212204bbcaf0bcdccd90bebfbcda42b17e391e79afe7a3600c15d747657ed7f3c66d964736f6c634300080c0033",
  "immutableReferences": {},
  "source": "// SPDX-License-Identifier: MIT\r\npragma solidity ^0.8.0;\r\n\r\n/*\r\n    building out a mint function\r\n       a. nft to point to an address\r\n       b. keep track of the token ids\r\n       c. keep track of token owner addresses to token ids\r\n       d. keep track of how many tokens an owner address has\r\n       e. emit and keep track of logged info\r\n        create an event that emits a transfer log -contract addres, \r\n        where it is being minted to, the id\r\n*/\r\n\r\ncontract ERC721 {\r\n\r\n    // events for logging purposes\r\n    event Transfer(address indexed from,\r\n                   address indexed to, \r\n                   uint256 indexed tokenId);\r\n\r\n    // mapping from token id to owner\r\n    mapping(uint256 => address) private _tokenOwner;\r\n    // mapping from owner to number of owned tokens\r\n    mapping(address => uint256) private _ownedTokens;\r\n\r\n    // balance of function to get balance return number of tokens owned by an owner\r\n    function balanceOf(address _owner) public view returns(uint256) {\r\n        require(_owner != address(0), \"Error, query on nonexistent address\");\r\n        return _ownedTokens[_owner];\r\n    }\r\n\r\n    // owner of function returns the owner of an NFT token id\r\n    function ownerOf(uint256 _tokenId) external view returns (address) {\r\n        require(_exists(_tokenId), \"Error, tokenId does not exist\");\r\n        address owner = _tokenOwner[_tokenId];\r\n        return owner;\r\n    }\r\n\r\n    function _exists(uint256 tokenId) internal view returns(bool) {\r\n        // try to access owner of token and if exists returns true, not false\r\n        address owner = _tokenOwner[tokenId];\r\n        return owner != address(0);\r\n    }\r\n\r\n    function _mint(address to, uint256 tokenId) internal {\r\n        // require the address is not blank\r\n        require(to != address(0), \"ERC721: minting to zero address\");\r\n        // require that token hasn't been minted already\r\n        require(!_exists(tokenId), \"ERC721: token already minted\");\r\n        // add address to owner of token id\r\n        _tokenOwner[tokenId] = to;\r\n        // add 1 to owned token counts for address\r\n        _ownedTokens[to] += 1;\r\n\r\n        // emit transfer event\r\n        emit Transfer(address(0), to, tokenId);\r\n    }\r\n    \r\n}",
  "sourcePath": "C:\\Users\\sethh\\OneDrive\\Coding Courses\\Udemy\\NFT Course\\nft-marketplace-starter-kit-main\\src\\contracts\\ERC721.sol",
  "compiler": {
    "name": "solc",
    "version": "0.8.12+commit.f00d7308.Emscripten.clang"
  },
  "schemaVersion": "3.4.5",
  "updatedAt": "2022-03-12T04:26:13.432Z",
  "devdoc": {
    "kind": "dev",
    "methods": {},
    "version": 1
  },
  "userdoc": {
    "kind": "user",
    "methods": {},
    "version": 1
  }
}