{
  "contractName": "KryptoBird",
  "abi": [
    {
      "inputs": [],
      "stateMutability": "nonpayable",
      "type": "constructor"
    },
    {
      "anonymous": false,
      "inputs": [
        {
          "indexed": true,
          "internalType": "address",
          "name": "from",
          "type": "address"
        },
        {
          "indexed": true,
          "internalType": "address",
          "name": "to",
          "type": "address"
        },
        {
          "indexed": true,
          "internalType": "uint256",
          "name": "tokenId",
          "type": "uint256"
        }
      ],
      "name": "Transfer",
      "type": "event"
    },
    {
      "inputs": [
        {
          "internalType": "address",
          "name": "_owner",
          "type": "address"
        }
      ],
      "name": "balanceOf",
      "outputs": [
        {
          "internalType": "uint256",
          "name": "",
          "type": "uint256"
        }
      ],
      "stateMutability": "view",
      "type": "function",
      "constant": true
    },
    {
      "inputs": [
        {
          "internalType": "uint256",
          "name": "",
          "type": "uint256"
        }
      ],
      "name": "kryptoBirdz",
      "outputs": [
        {
          "internalType": "string",
          "name": "",
          "type": "string"
        }
      ],
      "stateMutability": "view",
      "type": "function",
      "constant": true
    },
    {
      "inputs": [],
      "name": "name",
      "outputs": [
        {
          "internalType": "string",
          "name": "",
          "type": "string"
        }
      ],
      "stateMutability": "view",
      "type": "function",
      "constant": true
    },
    {
      "inputs": [
        {
          "internalType": "uint256",
          "name": "_tokenId",
          "type": "uint256"
        }
      ],
      "name": "ownerOf",
      "outputs": [
        {
          "internalType": "address",
          "name": "",
          "type": "address"
        }
      ],
      "stateMutability": "view",
      "type": "function",
      "constant": true
    },
    {
      "inputs": [],
      "name": "symbol",
      "outputs": [
        {
          "internalType": "string",
          "name": "",
          "type": "string"
        }
      ],
      "stateMutability": "view",
      "type": "function",
      "constant": true
    },
    {
      "inputs": [
        {
          "internalType": "string",
          "name": "_kryptoBird",
          "type": "string"
        }
      ],
      "name": "mint",
      "outputs": [],
      "stateMutability": "nonpayable",
      "type": "function"
    }
  ],
  "bytecode": "0x60806040523480156200001157600080fd5b506040518060400160405280600a81526020017f4b727970746f42697264000000000000000000000000000000000000000000008152506040518060400160405280600681526020017f4b424952445a00000000000000000000000000000000000000000000000000008152508181816000908051906020019062000098929190620000bc565b508060019080519060200190620000b1929190620000bc565b5050505050620001d1565b828054620000ca906200019b565b90600052602060002090601f016020900481019282620000ee57600085556200013a565b82601f106200010957805160ff19168380011785556200013a565b828001600101855582156200013a579182015b82811115620001395782518255916020019190600101906200011c565b5b5090506200014991906200014d565b5090565b5b80821115620001685760008160009055506001016200014e565b5090565b7f4e487b7100000000000000000000000000000000000000000000000000000000600052602260045260246000fd5b60006002820490506001821680620001b457607f821691505b60208210811415620001cb57620001ca6200016c565b5b50919050565b610fb080620001e16000396000f3fe608060405234801561001057600080fd5b50600436106100625760003560e01c806306fdde03146100675780636352211e1461008557806370a08231146100b557806393ab6e56146100e557806395d89b4114610115578063d85d3d2714610133575b600080fd5b61006f61014f565b60405161007c91906108d5565b60405180910390f35b61009f600480360381019061009a9190610941565b6101e1565b6040516100ac91906109af565b60405180910390f35b6100cf60048036038101906100ca91906109f6565b61026c565b6040516100dc9190610a32565b60405180910390f35b6100ff60048036038101906100fa9190610941565b610324565b60405161010c91906108d5565b60405180910390f35b61011d6103d0565b60405161012a91906108d5565b60405180910390f35b61014d60048036038101906101489190610b82565b610462565b005b60606000805461015e90610bfa565b80601f016020809104026020016040519081016040528092919081815260200182805461018a90610bfa565b80156101d75780601f106101ac576101008083540402835291602001916101d7565b820191906000526020600020905b8154815290600101906020018083116101ba57829003601f168201915b5050505050905090565b60006101ec82610565565b61022b576040517f08c379a000000000000000000000000000000000000000000000000000000000815260040161022290610c78565b60405180910390fd5b60006002600084815260200190815260200160002060009054906101000a900473ffffffffffffffffffffffffffffffffffffffff16905080915050919050565b60008073ffffffffffffffffffffffffffffffffffffffff168273ffffffffffffffffffffffffffffffffffffffff1614156102dd576040517f08c379a00000000000000000000000000000000000000000000000000000000081526004016102d490610d0a565b60405180910390fd5b600360008373ffffffffffffffffffffffffffffffffffffffff1673ffffffffffffffffffffffffffffffffffffffff168152602001908152602001600020549050919050565b6004818154811061033457600080fd5b90600052602060002001600091509050805461034f90610bfa565b80601f016020809104026020016040519081016040528092919081815260200182805461037b90610bfa565b80156103c85780601f1061039d576101008083540402835291602001916103c8565b820191906000526020600020905b8154815290600101906020018083116103ab57829003601f168201915b505050505081565b6060600180546103df90610bfa565b80601f016020809104026020016040519081016040528092919081815260200182805461040b90610bfa565b80156104585780601f1061042d57610100808354040283529160200191610458565b820191906000526020600020905b81548152906001019060200180831161043b57829003601f168201915b5050505050905090565b6005816040516104729190610d66565b908152602001604051809103902060009054906101000a900460ff16156104ce576040517f08c379a00000000000000000000000000000000000000000000000000000000081526004016104c590610dc9565b60405180910390fd5b600481908060018154018082558091505060019003906000526020600020016000909190919091509080519060200190610509929190610799565b506000600160048054905061051e9190610e18565b905061052a33826105d7565b600160058360405161053c9190610d66565b908152602001604051809103902060006101000a81548160ff0219169083151502179055505050565b6000806002600084815260200190815260200160002060009054906101000a900473ffffffffffffffffffffffffffffffffffffffff169050600073ffffffffffffffffffffffffffffffffffffffff168173ffffffffffffffffffffffffffffffffffffffff161415915050919050565b600073ffffffffffffffffffffffffffffffffffffffff168273ffffffffffffffffffffffffffffffffffffffff161415610647576040517f08c379a000000000000000000000000000000000000000000000000000000000815260040161063e90610e98565b60405180910390fd5b61065081610565565b15610690576040517f08c379a000000000000000000000000000000000000000000000000000000000815260040161068790610f04565b60405180910390fd5b816002600083815260200190815260200160002060006101000a81548173ffffffffffffffffffffffffffffffffffffffff021916908373ffffffffffffffffffffffffffffffffffffffff1602179055506001600360008473ffffffffffffffffffffffffffffffffffffffff1673ffffffffffffffffffffffffffffffffffffffff16815260200190815260200160002060008282546107329190610f24565b92505081905550808273ffffffffffffffffffffffffffffffffffffffff16600073ffffffffffffffffffffffffffffffffffffffff167fddf252ad1be2c89b69c2b068fc378daa952ba7f163c4a11628f55a4df523b3ef60405160405180910390a45050565b8280546107a590610bfa565b90600052602060002090601f0160209004810192826107c7576000855561080e565b82601f106107e057805160ff191683800117855561080e565b8280016001018555821561080e579182015b8281111561080d5782518255916020019190600101906107f2565b5b50905061081b919061081f565b5090565b5b80821115610838576000816000905550600101610820565b5090565b600081519050919050565b600082825260208201905092915050565b60005b8381101561087657808201518184015260208101905061085b565b83811115610885576000848401525b50505050565b6000601f19601f8301169050919050565b60006108a78261083c565b6108b18185610847565b93506108c1818560208601610858565b6108ca8161088b565b840191505092915050565b600060208201905081810360008301526108ef818461089c565b905092915050565b6000604051905090565b600080fd5b600080fd5b6000819050919050565b61091e8161090b565b811461092957600080fd5b50565b60008135905061093b81610915565b92915050565b60006020828403121561095757610956610901565b5b60006109658482850161092c565b91505092915050565b600073ffffffffffffffffffffffffffffffffffffffff82169050919050565b60006109998261096e565b9050919050565b6109a98161098e565b82525050565b60006020820190506109c460008301846109a0565b92915050565b6109d38161098e565b81146109de57600080fd5b50565b6000813590506109f0816109ca565b92915050565b600060208284031215610a0c57610a0b610901565b5b6000610a1a848285016109e1565b91505092915050565b610a2c8161090b565b82525050565b6000602082019050610a476000830184610a23565b92915050565b600080fd5b600080fd5b7f4e487b7100000000000000000000000000000000000000000000000000000000600052604160045260246000fd5b610a8f8261088b565b810181811067ffffffffffffffff82111715610aae57610aad610a57565b5b80604052505050565b6000610ac16108f7565b9050610acd8282610a86565b919050565b600067ffffffffffffffff821115610aed57610aec610a57565b5b610af68261088b565b9050602081019050919050565b82818337600083830152505050565b6000610b25610b2084610ad2565b610ab7565b905082815260208101848484011115610b4157610b40610a52565b5b610b4c848285610b03565b509392505050565b600082601f830112610b6957610b68610a4d565b5b8135610b79848260208601610b12565b91505092915050565b600060208284031215610b9857610b97610901565b5b600082013567ffffffffffffffff811115610bb657610bb5610906565b5b610bc284828501610b54565b91505092915050565b7f4e487b7100000000000000000000000000000000000000000000000000000000600052602260045260246000fd5b60006002820490506001821680610c1257607f821691505b60208210811415610c2657610c25610bcb565b5b50919050565b7f4572726f722c20746f6b656e496420646f6573206e6f74206578697374000000600082015250565b6000610c62601d83610847565b9150610c6d82610c2c565b602082019050919050565b60006020820190508181036000830152610c9181610c55565b9050919050565b7f4572726f722c207175657279206f6e206e6f6e6578697374656e74206164647260008201527f6573730000000000000000000000000000000000000000000000000000000000602082015250565b6000610cf4602383610847565b9150610cff82610c98565b604082019050919050565b60006020820190508181036000830152610d2381610ce7565b9050919050565b600081905092915050565b6000610d408261083c565b610d4a8185610d2a565b9350610d5a818560208601610858565b80840191505092915050565b6000610d728284610d35565b915081905092915050565b7f4572726f72206b727970746f4269726420616c72656164792065786973747300600082015250565b6000610db3601f83610847565b9150610dbe82610d7d565b602082019050919050565b60006020820190508181036000830152610de281610da6565b9050919050565b7f4e487b7100000000000000000000000000000000000000000000000000000000600052601160045260246000fd5b6000610e238261090b565b9150610e2e8361090b565b925082821015610e4157610e40610de9565b5b828203905092915050565b7f4552433732313a206d696e74696e6720746f207a65726f206164647265737300600082015250565b6000610e82601f83610847565b9150610e8d82610e4c565b602082019050919050565b60006020820190508181036000830152610eb181610e75565b9050919050565b7f4552433732313a20746f6b656e20616c7265616479206d696e74656400000000600082015250565b6000610eee601c83610847565b9150610ef982610eb8565b602082019050919050565b60006020820190508181036000830152610f1d81610ee1565b9050919050565b6000610f2f8261090b565b9150610f3a8361090b565b9250827fffffffffffffffffffffffffffffffffffffffffffffffffffffffffffffffff03821115610f6f57610f6e610de9565b5b82820190509291505056fea264697066735822122059632643aeeab5993d973f958708318a847b9c60fc33fa0e48ddd72c5979e26964736f6c634300080c0033",
  "immutableReferences": {},
  "source": "// SPDX-License-Identifier: MIT\r\npragma solidity ^0.8.0;\r\n\r\nimport './ERC721Connector.sol';\r\n\r\ncontract KryptoBird is ERC721Connector {\r\n    // create array to keep track of kbirdz nfts in contract\r\n    string[] public kryptoBirdz;\r\n\r\n    // keep track of minted birds\r\n    mapping(string => bool) _kryptoBirdzExists;\r\n\r\n    function mint(string memory _kryptoBird) public {\r\n        require(!_kryptoBirdzExists[_kryptoBird],\r\n        \"Error kryptoBird already exists\");\r\n        // this deprecated uint256 _id = KrypotBirdz.push(_krypotBird);\r\n        // add minted bird to string array and use its position in the array as the tokenId\r\n        kryptoBirdz.push(_kryptoBird);\r\n        uint _id = kryptoBirdz.length - 1;\r\n        _mint(msg.sender, _id);\r\n\r\n        // mark bird as exists\r\n        _kryptoBirdzExists[_kryptoBird] = true;\r\n    }\r\n\r\n    constructor() ERC721Connector('KryptoBird','KBIRDZ') {\r\n\r\n    }\r\n\r\n}",
  "sourcePath": "C:\\Users\\sethh\\OneDrive\\Coding Courses\\Udemy\\NFT Course\\nft-marketplace-starter-kit-main\\src\\contracts\\KryptoBirdz.sol",
  "compiler": {
    "name": "solc",
    "version": "0.8.12+commit.f00d7308.Emscripten.clang"
  },
  "schemaVersion": "3.4.5",
  "updatedAt": "2022-03-12T04:26:20.657Z",
  "networkType": "ethereum",
  "devdoc": {
    "kind": "dev",
    "methods": {},
    "version": 1
  },
  "userdoc": {
    "kind": "user",
    "methods": {},
    "version": 1
  }
}