{
  "contractName": "KryptoBird",
  "abi": [
    {
      "inputs": [],
      "stateMutability": "nonpayable",
      "type": "constructor"
    },
    {
      "anonymous": false,
      "inputs": [
        {
          "indexed": true,
          "internalType": "address",
          "name": "_owner",
          "type": "address"
        },
        {
          "indexed": true,
          "internalType": "address",
          "name": "_approved",
          "type": "address"
        },
        {
          "indexed": true,
          "internalType": "uint256",
          "name": "_tokenId",
          "type": "uint256"
        }
      ],
      "name": "Approval",
      "type": "event"
    },
    {
      "anonymous": false,
      "inputs": [
        {
          "indexed": true,
          "internalType": "address",
          "name": "_from",
          "type": "address"
        },
        {
          "indexed": true,
          "internalType": "address",
          "name": "_to",
          "type": "address"
        },
        {
          "indexed": true,
          "internalType": "uint256",
          "name": "_tokenId",
          "type": "uint256"
        }
      ],
      "name": "Transfer",
      "type": "event"
    },
    {
      "inputs": [
        {
          "internalType": "address",
          "name": "_owner",
          "type": "address"
        }
      ],
      "name": "balanceOf",
      "outputs": [
        {
          "internalType": "uint256",
          "name": "",
          "type": "uint256"
        }
      ],
      "stateMutability": "view",
      "type": "function",
      "constant": true
    },
    {
      "inputs": [
        {
          "internalType": "uint256",
          "name": "",
          "type": "uint256"
        }
      ],
      "name": "kryptoBirdz",
      "outputs": [
        {
          "internalType": "string",
          "name": "",
          "type": "string"
        }
      ],
      "stateMutability": "view",
      "type": "function",
      "constant": true
    },
    {
      "inputs": [],
      "name": "name",
      "outputs": [
        {
          "internalType": "string",
          "name": "",
          "type": "string"
        }
      ],
      "stateMutability": "view",
      "type": "function",
      "constant": true
    },
    {
      "inputs": [
        {
          "internalType": "uint256",
          "name": "_tokenId",
          "type": "uint256"
        }
      ],
      "name": "ownerOf",
      "outputs": [
        {
          "internalType": "address",
          "name": "",
          "type": "address"
        }
      ],
      "stateMutability": "view",
      "type": "function",
      "constant": true
    },
    {
      "inputs": [
        {
          "internalType": "bytes4",
          "name": "interfaceID",
          "type": "bytes4"
        }
      ],
      "name": "supportsInterface",
      "outputs": [
        {
          "internalType": "bool",
          "name": "",
          "type": "bool"
        }
      ],
      "stateMutability": "view",
      "type": "function",
      "constant": true
    },
    {
      "inputs": [],
      "name": "symbol",
      "outputs": [
        {
          "internalType": "string",
          "name": "",
          "type": "string"
        }
      ],
      "stateMutability": "view",
      "type": "function",
      "constant": true
    },
    {
      "inputs": [
        {
          "internalType": "uint256",
          "name": "_index",
          "type": "uint256"
        }
      ],
      "name": "tokenByIndex",
      "outputs": [
        {
          "internalType": "uint256",
          "name": "",
          "type": "uint256"
        }
      ],
      "stateMutability": "view",
      "type": "function",
      "constant": true
    },
    {
      "inputs": [
        {
          "internalType": "address",
          "name": "_owner",
          "type": "address"
        },
        {
          "internalType": "uint256",
          "name": "_index",
          "type": "uint256"
        }
      ],
      "name": "tokenOfOwnerByIndex",
      "outputs": [
        {
          "internalType": "uint256",
          "name": "",
          "type": "uint256"
        }
      ],
      "stateMutability": "view",
      "type": "function",
      "constant": true
    },
    {
      "inputs": [],
      "name": "totalSupply",
      "outputs": [
        {
          "internalType": "uint256",
          "name": "",
          "type": "uint256"
        }
      ],
      "stateMutability": "view",
      "type": "function",
      "constant": true
    },
    {
      "inputs": [
        {
          "internalType": "address",
          "name": "_from",
          "type": "address"
        },
        {
          "internalType": "address",
          "name": "_to",
          "type": "address"
        },
        {
          "internalType": "uint256",
          "name": "_tokenId",
          "type": "uint256"
        }
      ],
      "name": "transferFrom",
      "outputs": [],
      "stateMutability": "nonpayable",
      "type": "function"
    },
    {
      "inputs": [
        {
          "internalType": "string",
          "name": "_kryptoBird",
          "type": "string"
        }
      ],
      "name": "mint",
      "outputs": [],
      "stateMutability": "nonpayable",
      "type": "function"
    }
  ],
  "bytecode": "0x60806040523480156200001157600080fd5b506040518060400160405280600a81526020017f4b727970746f42697264000000000000000000000000000000000000000000008152506040518060400160405280600681526020017f4b424952445a00000000000000000000000000000000000000000000000000008152508181620000b17f01ffc9a7a5cef8baa21ed3c5c0d7e23accb804b619e9333b597f47a0d84076e26200022a60201b60201c565b8160019080519060200190620000c992919062000301565b508060029080519060200190620000e292919062000301565b50620001367f13b182f4c0e5b2efbac0efe6cf6d756c8b89f4b79c5707a043ed9ea740574ee97f7feaf19471f34a12a7eaf32d5f3090aa2260ea8624dc8a138e74e0bf0f623076186200022a60201b60201c565b5050620001ad7f22c82707ba960a14c7592ffb6b8cfaa073fed0048a84cc7fa41f6b5bd8e7f2e47f3a6eb71757dfc6e784c1459d26270140c2c147d95ca985c80026fc5301c3eca17f8a7e378434598edc36d108689a030cbc9d7d465de4f74c71bae1028eed6a881b18186200022a60201b60201c565b620002227f8230223f691b981717299fae9549350a0d894555723531f02108b1f522c1a7977f6da5e1284143cdd2d15038a59bde3be031250f00291d64494c12d967b3a4e0c37fc53637662700e6c65104059db8bba34439e0c32483ab7c34e3ccae52c739549518186200022a60201b60201c565b5050620004be565b63ffffffff60e01b817bffffffffffffffffffffffffffffffffffffffffffffffffffffffff19160362000295576040517f08c379a00000000000000000000000000000000000000000000000000000000081526004016200028c9062000438565b60405180910390fd5b6001600080837bffffffffffffffffffffffffffffffffffffffffffffffffffffffff19167bffffffffffffffffffffffffffffffffffffffffffffffffffffffff1916815260200190815260200160002060006101000a81548160ff02191690831515021790555050565b8280546200030f9062000489565b90600052602060002090601f0160209004810192826200033357600085556200037f565b82601f106200034e57805160ff19168380011785556200037f565b828001600101855582156200037f579182015b828111156200037e57825182559160200191906001019062000361565b5b5090506200038e919062000392565b5090565b5b80821115620003ad57600081600090555060010162000393565b5090565b600082825260208201905092915050565b7f4552433136352c20696e76616c696420696e746572666163652072657175657360008201527f7400000000000000000000000000000000000000000000000000000000000000602082015250565b600062000420602183620003b1565b91506200042d82620003c2565b604082019050919050565b60006020820190508181036000830152620004538162000411565b9050919050565b7f4e487b7100000000000000000000000000000000000000000000000000000000600052602260045260246000fd5b60006002820490506001821680620004a257607f821691505b602082108103620004b857620004b76200045a565b5b50919050565b611c2f80620004ce6000396000f3fe608060405234801561001057600080fd5b50600436106100a95760003560e01c80634f6ccce7116100715780634f6ccce7146101665780636352211e1461019657806370a08231146101c657806393ab6e56146101f657806395d89b4114610226578063d85d3d2714610244576100a9565b806301ffc9a7146100ae57806306fdde03146100de57806318160ddd146100fc57806323b872dd1461011a5780632f745c5914610136575b600080fd5b6100c860048036038101906100c39190610fce565b610260565b6040516100d59190611016565b60405180910390f35b6100e66102c7565b6040516100f391906110ca565b60405180910390f35b610104610359565b6040516101119190611105565b60405180910390f35b610134600480360381019061012f91906111aa565b610366565b005b610150600480360381019061014b91906111fd565b6103bf565b60405161015d9190611105565b60405180910390f35b610180600480360381019061017b919061123d565b61046f565b60405161018d9190611105565b60405180910390f35b6101b060048036038101906101ab919061123d565b6104e0565b6040516101bd9190611279565b60405180910390f35b6101e060048036038101906101db9190611294565b61056b565b6040516101ed9190611105565b60405180910390f35b610210600480360381019061020b919061123d565b610622565b60405161021d91906110ca565b60405180910390f35b61022e6106ce565b60405161023b91906110ca565b60405180910390f35b61025e600480360381019061025991906113f6565b610760565b005b6000806000837bffffffffffffffffffffffffffffffffffffffffffffffffffffffff19167bffffffffffffffffffffffffffffffffffffffffffffffffffffffff1916815260200190815260200160002060009054906101000a900460ff169050919050565b6060600180546102d69061146e565b80601f01602080910402602001604051908101604052809291908181526020018280546103029061146e565b801561034f5780601f106103245761010080835404028352916020019161034f565b820191906000526020600020905b81548152906001019060200180831161033257829003601f168201915b5050505050905090565b6000600680549050905090565b6103708282610863565b6103af576040517f08c379a00000000000000000000000000000000000000000000000000000000081526004016103a690611511565b60405180910390fd5b6103ba8383836108f2565b505050565b6000816103cb8461056b565b1161040b576040517f08c379a0000000000000000000000000000000000000000000000000000000008152600401610402906115a3565b60405180910390fd5b600860008473ffffffffffffffffffffffffffffffffffffffff1673ffffffffffffffffffffffffffffffffffffffff168152602001908152602001600020828154811061045c5761045b6115c3565b5b9060005260206000200154905092915050565b6000610479610359565b82106104ba576040517f08c379a00000000000000000000000000000000000000000000000000000000081526004016104b190611664565b60405180910390fd5b600682815481106104ce576104cd6115c3565b5b90600052602060002001549050919050565b60006104eb82610b5e565b61052a576040517f08c379a0000000000000000000000000000000000000000000000000000000008152600401610521906116f6565b60405180910390fd5b60006003600084815260200190815260200160002060009054906101000a900473ffffffffffffffffffffffffffffffffffffffff16905080915050919050565b60008073ffffffffffffffffffffffffffffffffffffffff168273ffffffffffffffffffffffffffffffffffffffff16036105db576040517f08c379a00000000000000000000000000000000000000000000000000000000081526004016105d290611788565b60405180910390fd5b600460008373ffffffffffffffffffffffffffffffffffffffff1673ffffffffffffffffffffffffffffffffffffffff168152602001908152602001600020549050919050565b600a818154811061063257600080fd5b90600052602060002001600091509050805461064d9061146e565b80601f01602080910402602001604051908101604052809291908181526020018280546106799061146e565b80156106c65780601f1061069b576101008083540402835291602001916106c6565b820191906000526020600020905b8154815290600101906020018083116106a957829003601f168201915b505050505081565b6060600280546106dd9061146e565b80601f01602080910402602001604051908101604052809291908181526020018280546107099061146e565b80156107565780601f1061072b57610100808354040283529160200191610756565b820191906000526020600020905b81548152906001019060200180831161073957829003601f168201915b5050505050905090565b600b8160405161077091906117e4565b908152602001604051809103902060009054906101000a900460ff16156107cc576040517f08c379a00000000000000000000000000000000000000000000000000000000081526004016107c390611847565b60405180910390fd5b600a81908060018154018082558091505060019003906000526020600020016000909190919091509080519060200190610807929190610ebf565b5060006001600a8054905061081c9190611896565b90506108283382610bd0565b6001600b8360405161083a91906117e4565b908152602001604051809103902060006101000a81548160ff0219169083151502179055505050565b600061086e82610b5e565b6108ad576040517f08c379a00000000000000000000000000000000000000000000000000000000081526004016108a490611916565b60405180910390fd5b60006108b8836104e0565b90508073ffffffffffffffffffffffffffffffffffffffff168473ffffffffffffffffffffffffffffffffffffffff161491505092915050565b600073ffffffffffffffffffffffffffffffffffffffff168273ffffffffffffffffffffffffffffffffffffffff1603610961576040517f08c379a0000000000000000000000000000000000000000000000000000000008152600401610958906119a8565b60405180910390fd5b6003600082815260200190815260200160002060009054906101000a900473ffffffffffffffffffffffffffffffffffffffff1673ffffffffffffffffffffffffffffffffffffffff168373ffffffffffffffffffffffffffffffffffffffff1614610a02576040517f08c379a00000000000000000000000000000000000000000000000000000000081526004016109f990611a3a565b60405180910390fd5b816003600083815260200190815260200160002060006101000a81548173ffffffffffffffffffffffffffffffffffffffff021916908373ffffffffffffffffffffffffffffffffffffffff160217905550600460008473ffffffffffffffffffffffffffffffffffffffff1673ffffffffffffffffffffffffffffffffffffffff1681526020019081526020016000206000815480929190610aa490611a5a565b9190505550600460008373ffffffffffffffffffffffffffffffffffffffff1673ffffffffffffffffffffffffffffffffffffffff1681526020019081526020016000206000815480929190610af990611a83565b9190505550808273ffffffffffffffffffffffffffffffffffffffff168473ffffffffffffffffffffffffffffffffffffffff167fddf252ad1be2c89b69c2b068fc378daa952ba7f163c4a11628f55a4df523b3ef60405160405180910390a4505050565b6000806003600084815260200190815260200160002060009054906101000a900473ffffffffffffffffffffffffffffffffffffffff169050600073ffffffffffffffffffffffffffffffffffffffff168173ffffffffffffffffffffffffffffffffffffffff161415915050919050565b610bda8282610bf1565b610be381610db2565b610bed8282610dfb565b5050565b600073ffffffffffffffffffffffffffffffffffffffff168273ffffffffffffffffffffffffffffffffffffffff1603610c60576040517f08c379a0000000000000000000000000000000000000000000000000000000008152600401610c5790611b17565b60405180910390fd5b610c6981610b5e565b15610ca9576040517f08c379a0000000000000000000000000000000000000000000000000000000008152600401610ca090611b83565b60405180910390fd5b816003600083815260200190815260200160002060006101000a81548173ffffffffffffffffffffffffffffffffffffffff021916908373ffffffffffffffffffffffffffffffffffffffff1602179055506001600460008473ffffffffffffffffffffffffffffffffffffffff1673ffffffffffffffffffffffffffffffffffffffff1681526020019081526020016000206000828254610d4b9190611ba3565b92505081905550808273ffffffffffffffffffffffffffffffffffffffff16600073ffffffffffffffffffffffffffffffffffffffff167fddf252ad1be2c89b69c2b068fc378daa952ba7f163c4a11628f55a4df523b3ef60405160405180910390a45050565b6006805490506007600083815260200190815260200160002081905550600681908060018154018082558091505060019003906000526020600020016000909190919091505550565b600860008373ffffffffffffffffffffffffffffffffffffffff1673ffffffffffffffffffffffffffffffffffffffff168152602001908152602001600020805490506009600083815260200190815260200160002081905550600860008373ffffffffffffffffffffffffffffffffffffffff1673ffffffffffffffffffffffffffffffffffffffff1681526020019081526020016000208190806001815401808255809150506001900390600052602060002001600090919091909150555050565b828054610ecb9061146e565b90600052602060002090601f016020900481019282610eed5760008555610f34565b82601f10610f0657805160ff1916838001178555610f34565b82800160010185558215610f34579182015b82811115610f33578251825591602001919060010190610f18565b5b509050610f419190610f45565b5090565b5b80821115610f5e576000816000905550600101610f46565b5090565b6000604051905090565b600080fd5b600080fd5b60007fffffffff0000000000000000000000000000000000000000000000000000000082169050919050565b610fab81610f76565b8114610fb657600080fd5b50565b600081359050610fc881610fa2565b92915050565b600060208284031215610fe457610fe3610f6c565b5b6000610ff284828501610fb9565b91505092915050565b60008115159050919050565b61101081610ffb565b82525050565b600060208201905061102b6000830184611007565b92915050565b600081519050919050565b600082825260208201905092915050565b60005b8381101561106b578082015181840152602081019050611050565b8381111561107a576000848401525b50505050565b6000601f19601f8301169050919050565b600061109c82611031565b6110a6818561103c565b93506110b681856020860161104d565b6110bf81611080565b840191505092915050565b600060208201905081810360008301526110e48184611091565b905092915050565b6000819050919050565b6110ff816110ec565b82525050565b600060208201905061111a60008301846110f6565b92915050565b600073ffffffffffffffffffffffffffffffffffffffff82169050919050565b600061114b82611120565b9050919050565b61115b81611140565b811461116657600080fd5b50565b60008135905061117881611152565b92915050565b611187816110ec565b811461119257600080fd5b50565b6000813590506111a48161117e565b92915050565b6000806000606084860312156111c3576111c2610f6c565b5b60006111d186828701611169565b93505060206111e286828701611169565b92505060406111f386828701611195565b9150509250925092565b6000806040838503121561121457611213610f6c565b5b600061122285828601611169565b925050602061123385828601611195565b9150509250929050565b60006020828403121561125357611252610f6c565b5b600061126184828501611195565b91505092915050565b61127381611140565b82525050565b600060208201905061128e600083018461126a565b92915050565b6000602082840312156112aa576112a9610f6c565b5b60006112b884828501611169565b91505092915050565b600080fd5b600080fd5b7f4e487b7100000000000000000000000000000000000000000000000000000000600052604160045260246000fd5b61130382611080565b810181811067ffffffffffffffff82111715611322576113216112cb565b5b80604052505050565b6000611335610f62565b905061134182826112fa565b919050565b600067ffffffffffffffff821115611361576113606112cb565b5b61136a82611080565b9050602081019050919050565b82818337600083830152505050565b600061139961139484611346565b61132b565b9050828152602081018484840111156113b5576113b46112c6565b5b6113c0848285611377565b509392505050565b600082601f8301126113dd576113dc6112c1565b5b81356113ed848260208601611386565b91505092915050565b60006020828403121561140c5761140b610f6c565b5b600082013567ffffffffffffffff81111561142a57611429610f71565b5b611436848285016113c8565b91505092915050565b7f4e487b7100000000000000000000000000000000000000000000000000000000600052602260045260246000fd5b6000600282049050600182168061148657607f821691505b6020821081036114995761149861143f565b5b50919050565b7f4572726f722c207370656e646572206973206e6f7420617070726f766564206f60008201527f72206f776e657200000000000000000000000000000000000000000000000000602082015250565b60006114fb60278361103c565b91506115068261149f565b604082019050919050565b6000602082019050818103600083015261152a816114ee565b9050919050565b7f4572726f722c206f776e657220696e646578206973206f7574206f6620626f7560008201527f6e64732e00000000000000000000000000000000000000000000000000000000602082015250565b600061158d60248361103c565b915061159882611531565b604082019050919050565b600060208201905081810360008301526115bc81611580565b9050919050565b7f4e487b7100000000000000000000000000000000000000000000000000000000600052603260045260246000fd5b7f4572726f722c20676c6f62616c20696e646578206f7574206f6620626f756e6460008201527f732e000000000000000000000000000000000000000000000000000000000000602082015250565b600061164e60228361103c565b9150611659826115f2565b604082019050919050565b6000602082019050818103600083015261167d81611641565b9050919050565b7f4572726f722c206f776e657220717565727920666f72206e6f6e65786973746560008201527f6e7420746f6b656e000000000000000000000000000000000000000000000000602082015250565b60006116e060288361103c565b91506116eb82611684565b604082019050919050565b6000602082019050818103600083015261170f816116d3565b9050919050565b7f4572726f722c207175657279206f6e206e6f6e6578697374656e74206164647260008201527f6573730000000000000000000000000000000000000000000000000000000000602082015250565b600061177260238361103c565b915061177d82611716565b604082019050919050565b600060208201905081810360008301526117a181611765565b9050919050565b600081905092915050565b60006117be82611031565b6117c881856117a8565b93506117d881856020860161104d565b80840191505092915050565b60006117f082846117b3565b915081905092915050565b7f4572726f72206b727970746f4269726420616c72656164792065786973747300600082015250565b6000611831601f8361103c565b915061183c826117fb565b602082019050919050565b6000602082019050818103600083015261186081611824565b9050919050565b7f4e487b7100000000000000000000000000000000000000000000000000000000600052601160045260246000fd5b60006118a1826110ec565b91506118ac836110ec565b9250828210156118bf576118be611867565b5b828203905092915050565b7f4572726f722c20746f6b656e20646f6573206e6f742065786973740000000000600082015250565b6000611900601b8361103c565b915061190b826118ca565b602082019050919050565b6000602082019050818103600083015261192f816118f3565b9050919050565b7f4572726f722c20455243373231207472616e7366657220746f20746865207a6560008201527f726f20616464726573732e000000000000000000000000000000000000000000602082015250565b6000611992602b8361103c565b915061199d82611936565b604082019050919050565b600060208201905081810360008301526119c181611985565b9050919050565b7f4572726f722c2073656e64696e67206164647265737320646f6573206e6f742060008201527f6f776e20746f6b656e2100000000000000000000000000000000000000000000602082015250565b6000611a24602a8361103c565b9150611a2f826119c8565b604082019050919050565b60006020820190508181036000830152611a5381611a17565b9050919050565b6000611a65826110ec565b915060008203611a7857611a77611867565b5b600182039050919050565b6000611a8e826110ec565b91507fffffffffffffffffffffffffffffffffffffffffffffffffffffffffffffffff8203611ac057611abf611867565b5b600182019050919050565b7f4552433732313a206d696e74696e6720746f207a65726f206164647265737300600082015250565b6000611b01601f8361103c565b9150611b0c82611acb565b602082019050919050565b60006020820190508181036000830152611b3081611af4565b9050919050565b7f4552433732313a20746f6b656e20616c7265616479206d696e74656400000000600082015250565b6000611b6d601c8361103c565b9150611b7882611b37565b602082019050919050565b60006020820190508181036000830152611b9c81611b60565b9050919050565b6000611bae826110ec565b9150611bb9836110ec565b9250827fffffffffffffffffffffffffffffffffffffffffffffffffffffffffffffffff03821115611bee57611bed611867565b5b82820190509291505056fea2646970667358221220031ecb08a9e160284f2dcf1795e2d091a0f927ab76b55f2ab335964e2e428e1264736f6c634300080e0033",
  "immutableReferences": {},
  "source": "// SPDX-License-Identifier: MIT\r\npragma solidity ^0.8.0;\r\n\r\nimport './ERC721Connector.sol';\r\n\r\ncontract KryptoBird is ERC721Connector {\r\n    // create array to keep track of kbirdz nfts in contract\r\n    string[] public kryptoBirdz;\r\n\r\n    // keep track of minted birds\r\n    mapping(string => bool) _kryptoBirdzExists;\r\n\r\n    function mint(string memory _kryptoBird) public {\r\n        require(!_kryptoBirdzExists[_kryptoBird],\r\n        \"Error kryptoBird already exists\");\r\n        // this deprecated uint256 _id = KrypotBirdz.push(_krypotBird);\r\n        // add minted bird to string array and use its position in the array as the tokenId\r\n        kryptoBirdz.push(_kryptoBird);\r\n        uint _id = kryptoBirdz.length - 1;\r\n        _mint(msg.sender, _id);\r\n\r\n        // mark bird as exists\r\n        _kryptoBirdzExists[_kryptoBird] = true;\r\n    }\r\n\r\n    constructor() ERC721Connector('KryptoBird','KBIRDZ') {\r\n\r\n    }\r\n\r\n}",
  "sourcePath": "C:\\Users\\sethh\\OneDrive\\Coding Courses\\Udemy\\NFT Course\\nft-marketplace-starter-kit-main\\src\\contracts\\KryptoBirdz.sol",
  "compiler": {
    "name": "solc",
    "version": "0.8.14+commit.80d49f37.Emscripten.clang"
  },
  "schemaVersion": "3.4.5",
  "updatedAt": "2022-05-29T03:00:11.600Z",
  "networkType": "ethereum",
  "devdoc": {
    "kind": "dev",
    "methods": {},
    "version": 1
  },
  "userdoc": {
    "kind": "user",
    "methods": {},
    "version": 1
  }
}